:020000040800F2
:100000000004002081010008A1140008A1140008C8
:10001000A1140008A1140008A1140008A1140008EC
:10002000A1140008A1140008A1140008410300084D
:10003000A1140008A1140008A1140008A1140008CC
:10004000A1140008A1140008A1140008A1140008BC
:10005000A1140008A1140008A1140008A1140008AC
:10006000A1140008A1140008A1140008A11400089C
:10007000A1140008A1140008A1140008A11400088C
:10008000A1140008A1140008A1140008A11400087C
:10009000A1140008A1140008A1140008A11400086C
:1000A000A1140008A1140008A1140008A11400085C
:1000B00081160008A1140008A1140008A11400086A
:1000C000A1140008A1140008A1140008A11400083C
:1000D000A114000811290008A1140008A1140008A7
:1000E000A1140008A1140008A1140008A11400081C
:1000F000A1140008A1140008A1140008A11400080C
:10010000A1140008A1140008A1140008A1140008FB
:10011000A1140008A1140008A1140008A1140008EB
:10012000A1140008A1140008A1140008A1140008DB
:10013000A1140008A1140008A1140008A1140008CB
:10014000A1140008A1140008A1140008A1140008BB
:10015000A1140008A1140008A1140008A1140008AB
:10016000000000000000000000000000000000008F
:10017000000000000000000000000000000000007F
:1001800072B6254880F3098824484EF60851CEF20D
:1001900000010860022080F31488BFF36F8F04F021
:1001A00037FD06F015FE1E481E491F4A91423CBF0E
:1001B00041F8040BFAE71D49174A91423CBF41F848
:1001C000040BFAE71A491B4A1B4B9A423EBF51F8EF
:1001D000040B42F8040BF8E700201849184A914232
:1001E0003CBF41F8040BFAE706F09AFE04F008FD64
:1001F000144C154DAC4203DA54F8041B8847F9E758
:1002000006F076FA114C124DAC4203DA54F8041B96
:100210008847F9E706F0B4BE000800200000000897
:100220005555555500000020000400200004002012
:10023000BC88000800080020B4080020B80800208E
:10024000A814002080010008800100088001000837
:10025000800100082DE9F04FC1F80CD0C3689D461D
:10026000BDE8F08F002383F311882846A0470020C3
:1002700006F0FEFD06F034FE00DFFEE700000000A1
:10028000704700BFAFF30080AFF30080AFF3008092
:1002900040F64013C2F2000300224FF4A4715960EB
:1002A0001A609A60704700BFAFF30080AFF3008020
:1002B00000207047AFF30080AFF30080AFF3008001
:1002C00040F6E873C2F2000300221A60704700BFD4
:1002D00041F230330122C2F200031A604FF0804134
:1002E0004A6A92B24B6A9BB29A42FBD0704700BFF7
:1002F00041F23033C2F2000301221A60202383F35B
:10030000118862B672B683F3118862B6002383F354
:10031000118862B6704700BFAFF30080AFF3008072
:100320004FF46053C4F20103DA6842F08002DA60ED
:10033000704700BFAFF30080AFF30080AFF30080E1
:10034000EFF30983203383F30988002383F31188B3
:10035000704700BFAFF30080AFF30080AFF30080C1
:1003600030B4202383F3118841F20C03C2F200035E
:100370001D684C1E2A4422444942044402EA0100FA
:1003800021405A680144914207D88D4205D819602E
:10039000002383F3118830BC70470020002383F3CF
:1003A000118830BC704700BFAFF30080AFF300800E
:1003B00010B4202383F3118890F82030072B0ED837
:1003C000DFE803F02B0D0D2708040D08436A9A6837
:1003D00001329A6090E80C001A60026853604FF096
:1003E000FF34002241F2C0238168446280F820205B
:1003F000C2F200031B689A688A42FBD25A68002145
:10040000036042601060586081F311885DF8044B0E
:100410007047436A00221A60E1E7002383F31188E2
:100420005DF8044B704700BFAFF30080AFF300806E
:10043000C20710B413D541F2C023C2F200031968F9
:100440000022994203D0096801329942FBD15968D0
:10045000994203D04968013A9942FBD19ABB83077C
:1004600015D541F2C023C2F200031C4654F81C1FEC
:100470000022A14203D009680132A142FBD11B6ACC
:10048000A34203D05B68013AA342FBD1DAB910F072
:10049000040015D041F2C023C2F200031A69002003
:1004A0009A4203D0126901309A42FBD15A699A42AA
:1004B00003D0526901389A42FBD1003018BF0120A5
:1004C0005DF8044B704701205DF8044B704700BF96
:1004D000FEE700BFAFF30080AFF30080AFF3008012
:1004E00070B5202383F3118841F2C022C2F20002CA
:1004F000106895698368AC68A34203D2002383F334
:10050000118870BD0368012600215A60136080F8CD
:100510002060906185F8201000E01B689A68944282
:10052000FBD95A6829462B606A6015605D60FFF749
:1005300091FE002383F3118870BD00BFAFF30080EC
:1005400038B541F2C0250446C2F20005FFF7C8FFE6
:10055000FFF7C6FFFFF7C4FFFFF7C2FF2368AA69D2
:100560000433236092F821305907EFD538BD00BF1E
:100570000B4B30B403F114002025002453F8042F52
:100580004AB185F3118892F8211041F0040182F8F4
:10059000211084F311888342F0D130BC704700BF32
:1005A000D00F0020AFF30080AFF30080AFF30080E6
:1005B000202383F3118841F25833C2F200031A68F2
:1005C00004498A423EBF511C19601070002383F316
:1005D000118870470C100020AFF30080AFF300804B
:1005E0000078FFF7E5BF00BFAFF30080AFF30080F6
:1005F0004120FFF7DDBF00BFAFF30080AFF3008005
:100600004220FFF7D5BF00BFAFF30080AFF30080FB
:100610004320FFF7CDBF00BFAFF30080AFF30080F2
:100620000078FFF7C5BF00BFAFF30080AFF30080D5
:1006300038B5017841F23435A1B10446C2F2000563
:10064000286803689B68984714F8011F0029F7D1B0
:10065000286846F690710368C0F600011B68022204
:10066000984738BDC2F20005F2E700BFAFF3008043
:1006700038B5017861B141F234350446C2F2000563
:10068000286803689B68984714F8011F0029F7D170
:1006900038BD00BFAFF30080AFF30080AFF3008040
:1006A000F0B441F2583640F6FC77C2F20006C2F2CE
:1006B000000735683B4605E013F8014B10F8012BA5
:1006C000944206D1AB42F7D3007810B93760F0BC42
:1006D000704741F2140441F21C0241F21803012058
:1006E000C2F20004C2F20002C2F2000320701070D5
:1006F0001960F0BC704700BFAFF30080AFF300801B
:1007000010B490B941F2140441F21C0241F21803F2
:100710000120C2F20004C2F20002C2F20003207003
:10072000107019605DF8044B704700205DF8044BB1
:10073000704700BFAFF30080AFF30080AFF30080DD
:1007400010B541F23034C2F20004012323602023AB
:1007500083F311880120FFF76BFE002383F31188D8
:1007600046F6947180F00100C0B2C0F60001FFF7B8
:10077000C7FF00B110BD02232360202383F311883B
:100780000220FFF755FE002383F3118846F6AC7173
:1007900080F00100C0B2C0F60001FFF7B1FF0028F1
:1007A000E8D103232360202383F311880420FFF77B
:1007B0003FFE002383F3118846F6D07180F00100DC
:1007C000C0B2C0F60001FFF79BFF0028D2D104237E
:1007D0002360202383F311880820FFF729FE0023DC
:1007E00083F3118846F6EC7180F00100C0B2C0F6C8
:1007F0000001BDE81040FFF783BF00BFAFF30080EA
:1008000008B541F23433C2F200031868302103689E
:100810009B68984708BD00BFAFF30080AFF300802E
:1008200070B584B048B30DF101054CF6CD462B46AA
:10083000CCF6CC46A6FB0012D20802EB8201A0EB5C
:1008400041013031C9B203F8011C1C461046013386
:10085000002AEFD16B469C420DD941F23436C2F2E8
:10086000000602E014F8021C013C306803689B6833
:100870009847AC42F6D104B070BD04B0BDE87040FA
:10088000FFF7BEBFAFF30080AFF30080AFF300808F
:1008900070B547F2040041F23035C2F20005012381
:1008A000C0F6000047F21404C0F600042B60FFF706
:1008B000DFFE7020FFF7B4FF2046FFF7B9FE47F2D6
:1008C0001C000223C0F600002B60FFF7D1FE44207D
:1008D000FFF7A6FF2046FFF7ABFE47F22C000323ED
:1008E000C0F600002B60FFF7C3FE1420FFF798FF4F
:1008F0002046FFF79DFE47F23C000426C0F60000AC
:100900002E60FFF7B5FE0C20FFF78AFF2046FFF7A9
:100910008FFE47F24C000523C0F600002B60FFF766
:10092000A7FE1020FFF77CFF2046FFF781FE47F26D
:100930005C000623C0F600002B60FFF799FE08203C
:10094000FFF76EFF2046FFF773FE47F26C000723A8
:10095000C0F600002B60FFF78BFE3046FFF760FF0C
:100960002046FFF765FE47F27C000823C0F6000032
:100970002B60FFF77DFE1420FFF752FF2046FFF7A4
:1009800057FE47F28C000923C0F600002B60FFF7EA
:100990006FFE2820FFF744FF2046BDE87040FFF7B8
:1009A00047BE00BFAFF30080AFF30080AFF300801D
:1009B00070B541F23436C2F200064C2530682D2164
:1009C000036841F234349B689847013DC2F2000449
:1009D000F4D1206846F690710368C0F600011B68E8
:1009E0000222984770BD00BFAFF30080AFF30080D4
:1009F00041F2C023C2F20003DA69F0B482420FD0A0
:100A0000026841681C330A60026800249A425160FF
:100A1000C46003D0018913890B441381F0BC704773
:100A20001168184640F81C1F81424FF0000408BFAF
:100A30004FF080434860D46008BFDC60EED04FF0D8
:100A40008040476A1689DC8C0D89BAB27319141B71
:100A50009BB2A4B2A3420B81E0D91B1B9BB2012B1A
:100A600098BF022313449BB24363D7E7AFF30080E0
:100A7000202383F311884FF46D43CEF200035B68AB
:100A800013F4006302D183F311887047EFF30982F6
:100A90004FF0807342F8043CA2F1200383F30988ED
:100AA00041F2C023C2F2000319689B6989689B6800
:100AB00099428BBF40F2752340F27823C0F60003C1
:100AC000C0F6000342F8083C704700BFAFF3008057
:100AD00008B52022034682F31188006828B1026815
:100AE0001A60002383F3118808BD9A68002AF8D0A1
:100AF000586804219047002383F3118808BD00BF84
:100B0000202383F3118841F2C023C2F200039B69C2
:100B100000215A6B1043586381F31188704700BF5E
:100B2000202383F31188024602E08B4207D01A4645
:100B300013688342F9D1002383F3118870470B684F
:100B40001360002383F31188704700BFAFF3008068
:100B50002DE9F00583680669456843F86C6C4669C1
:100B600000244FF0020C012141F2C022D0F80C8089
:100B700043F8686CC2F20002066803F828CC03F858
:100B8000261C03F8274C576940F26520A3F1480161
:100B900043F82C5CA3F16C0AA3F11C05C0F600001D
:100BA000A3F1200C43F8306C43F8408C43F80C8CD4
:100BB00043F83CAC43F84C0C43F8104C43F8144C4D
:100BC00043F8347C43F8382C08463961516143F8C6
:100BD0001C5C43F8185C43F820CCBDE8F005704776
:100BE00041F2C022C2F2000270B4106895698368B5
:100BF000AC68A34201D870BC70470368012600218D
:100C00005A60136080F82060906185F8201000E041
:100C10001B689A689442FBD35A6829462B606A6025
:100C200015605D6070BCFFF715BB00BFAFF30080BF
:100C300010B5202383F3118841F2C023C2F20003D0
:100C40009B69DC6B99688C4201D0814200D298602C
:100C5000D863FFF7C5FF002383F31188204610BD3A
:100C60002DE9F04141F2C024C2F20004A36941F22F
:100C700030359E68C2F20005771C012338462B6090
:100C8000FFF7D6FFB0EB060C804647F29C01DCF183
:100C9000000050EB0C00C0F60001FFF731FD08B179
:100CA000BDE8F081A36947F2C0019868C0F6000171
:100CB000B7EB000EDEF1000050EB0E00FFF720FD59
:100CC0000028EDD1022340462B60FFF7B1FF3D1A0B
:100CD000684247F29C016841C0F60001FFF710FD31
:100CE0000028DDD1A36947F2C0019868C0F6000171
:100CF000341A60426041BDE8F041FFF701BD00BF1A
:100D000010B5EFF30584C4F308041CB1002383F38A
:100D1000118810BDFFF764FF84F3118810BD00BF78
:100D2000F0B441F2C027C2F20007D7F818C08568B6
:100D3000DCF808400646A54241620ED800223B4638
:100D400080F820201B689A689542FBD95A68336066
:100D5000726016605E60F0BC704700238CF8203033
:100D60003B461B689A689442FBD95A680124CCF828
:100D70000030CCF80420C2F800C0C3F804C086F8E4
:100D800020403046BE616146F0BCFFF763BA00BF49
:100D900008B52022034682F3118882680132002AB6
:100DA000826003DD002383F3118808BD0068002101
:100DB00002681A605360FFF7B3FF002383F31188C2
:100DC00008BD00BFAFF30080AFF30080AFF3008039
:100DD00041F2C023C2F2000330B41A689969146862
:100DE000012581F82000636082F820501C601046C5
:100DF00030BC9A61FFF72EBAAFF30080AFF30080EA
:100E000010B5202383F3118841F2C024C2F20004FC
:100E1000A269134653F82C0F984209D001680D249B
:100E2000D1624B60002280F8204082F3118810BD0F
:100E30000E20FFF7CDFFA269D06A02F12C03EDE787
:100E400010B50346202282F311888268013A002AF5
:100E50008260A8BF002003DB002383F3118810BD4C
:100E600041F2C024C2F20004A2690520536259680D
:100E7000136051600A605A60FFF7AAFFA369586ABD
:100E8000002383F3118810BDAFF30080AFF300801F
:100E900010B541F2C024C2F20004A36993F82130D6
:100EA0005A070AD440F61010C2F20000FFF7C8FF3C
:100EB000A36993F821305B07F4D510BDAFF3008030
:100EC00010B5044640F6C870C2F20000FFF7B8FF44
:100ED0002078BDE81040FFF76BBB00BFAFF3008088
:100EE00010B540F6C874C2F200042046FFF7A8FF10
:100EF0002046BDE81040FFF74BBF00BFAFF30080B6
:100F0000002241F2C023816810B4C2F200030446FB
:100F100080F820201B689A688A42FBD25A682046D3
:100F20002360626014605C605DF8044B704700BF32
:100F300041F2C023C2F2000310B59C69202383F361
:100F40001188616290F82020036B00F12C010E2AB9
:100F500084E80A001C60046307D00C20FFF738FF08
:100F6000606A002383F3118810BDFFF7C9FFF4E71F
:100F700010B541210446FFF7DBFF20464221FFF771
:100F8000D7FF20464321FFF7D3FF20464421BDE889
:100F90001040FFF7CDBF00BFAFF30080AFF300807C
:100FA000426B90F8203011430A2B41630AD00B2B7F
:100FB00000D07047436A19408B42FAD10023436244
:100FC000FFF79EBF436A1942F8D17047AFF3008024
:100FD00070B504680646A0420D460DD0E3682B4369
:100FE000E36015B12269134203D06068A168FFF77E
:100FF000D7FF2468A642F1D170BD00BFAFF30080D7
:1010000030B441F2C0230446C2F200032568986957
:10101000E368AC42836317D0C16B4BB11A6893424B
:1010200003D09268914238BF1146DB68002BF5D19E
:10103000AA6B2B688160236028465C60A560E26033
:10104000AC6330BCFFF75CBF0023A36030BC7047CB
:1010500038B541F2C023C2F2000304469869202348
:1010600083F311882568E368AC4283631CD0C16BAD
:101070004BB11A68934203D09268914238BF11462F
:10108000DB68002BF5D12B68AA6B816023602846B2
:101090005C60E260A560AC63FFF732FFFFF7A0FD84
:1010A000002383F3118838BD0023A360002383F35A
:1010B000118838BDAFF30080AFF30080AFF300803C
:1010C000F8B5826841F2C023C2F2000305469C696C
:1010D000002A55D0A16893688B4207D292F820303D
:1010E0009160062B33D0072B1DD09BB12B4603E01C
:1010F0009968A268914202D31B689D42F8D15A6850
:101100002360626014605C6065620620BDE8F840A0
:10111000FFF75EBE92E80A0019601046126853603D
:10112000FFF7EEFEE2E713685068566A036017683F
:101130003346786002E09868884202D31B689E427A
:10114000F9D15968136051600A605A60CEE713689C
:101150005068566A036017683346786002E0986802
:10116000884202D31B689E42F9D1596813605160CE
:101170000A605A60B268A16893688B42AED3B5E743
:10118000A36B8460C360A063F8BD00BFAFF30080B1
:1011900008B5202383F31188FFF792FF002383F320
:1011A000118808BDAFF30080AFF30080AFF300807B
:1011B00038B540F66C04C2F2000405462046FFF73D
:1011C000E7FF2878FFF7F4F92046BDE83840FFF73D
:1011D0003FBF00BFAFF30080AFF30080AFF30080EC
:1011E00038B540F60004C2F2000405462046FFF779
:1011F000CFFF2878FFF7DCF92046BDE83840FFF73D
:1012000027BF00BFAFF30080AFF30080AFF30080D3
:1012100041F23833C2F200032DE9F047002814BF31
:1012200004461C4604F1100840468A469146FFF7E2
:10123000AFFFA368E3B100252F462E4618CB013639
:101240002744A54238BF2546002BF7D1BAF1000F3D
:1012500002D0FF00CAF80070B9F1000F02D0ED0013
:10126000C9F800504046FFF7F3FE3046BDE8F0876E
:101270001D461F461E46E9E7AFF30080AFF300802E
:10128000F8B550F8043C50F8084C0733DB0804F17B
:10129000100640F8043C054608343046FFF778FF56
:1012A000A5F108012346A34204D08B4202D31B6858
:1012B000A342FAD11A681AB1914201D31346F2E758
:1012C00055F8040C45F8082C1960421C55F8087CA8
:1012D00001EBC204BC420AD05A68501C03EBC000A8
:1012E000814213D03046BDE8F840FFF7B1BE6468D4
:1012F00051F832202044013045F8040C45F8082C00
:101300005A68501C03EBC0008142EBD155F8040C25
:1013100055F8081C0244013283E806003046BDE857
:10132000F840FFF795BE00BFAFF30080AFF3008039
:10133000826810B40132002A0346826002DD5DF843
:10134000044B7047026800241168104619604B6016
:1013500054625DF8044BFFF7D3BD00BFAFF30080CC
:1013600070B52023044683F31188856881600135B8
:10137000002DD8BF6FF0010609DC606801354368B5
:1013800063601C60FFF7BCFD012D4662F5D1FFF7DD
:1013900027FC002383F3118870BD00BFAFF30080EA
:1013A00070B540F6C87041F230350123C2F2000535
:1013B000C2F200002B60FFF743FD2023064683F3B3
:1013C000118840F6C874C2F20004A06847F2DC013C
:1013D000D0F1010038BF0020C0F60001FFF790F9FE
:1013E00018B1002383F3118870BD80F3118847F290
:1013F000F001D6F1010038BF0020C0F60001FFF770
:101400007FF900B170BD40F6C8700223C2F200003F
:101410002B60FFF7BDFC202383F31188A06847F2FF
:10142000DC01461E70427041C0F60001FFF768F90A
:101430000028D6D180F3118840F6C8700323C2F289
:10144000000002212B60FFF78BFF202383F311881C
:10145000A06847F2DC01841E60426041C0F60001D2
:10146000FFF74EF90028BCD180F31188CAE700BF0E
:1014700040F6C870C2F200000021FFF771BF00BF44
:10148000EFF30583C3F308031BB9202383F311880B
:101490007047202383F31188704700BFAFF30080AB
:1014A000FEE700BFAFF30080AFF30080AFF3008032
:1014B00040F6640140F66C0240F60003C2F20002FE
:1014C000C2F20003C2F2000100200960496012600C
:1014D0005260906098601B605B607047AFF3008063
:1014E00040F6640240F66C03C2F20003C2F200024E
:1014F0000021126052601B605B609960704700BF02
:1015000040F6640240F66C03C2F20003C2F200022D
:101510000021126052601B605B609960704700BFE1
:1015200040F66C03C2F2000300221B605B609A600D
:10153000704700BFAFF30080AFF30080AFF30080CF
:1015400040F66C0240F60003C2F20002C2F2000351
:10155000002112605260916099601B605B6070476F
:1015600040F66C03C2F2000300221B605B609A60CD
:10157000704700BFAFF30080AFF30080AFF300808F
:1015800040F61C03C2F20003002204211B605B60D2
:101590001961DA605A619A60704700BFAFF300804A
:1015A00040F61013C2F2000301221B605B609A60D8
:1015B000704700BFAFF30080AFF30080AFF300804F
:1015C00040F61013C2F2000300221B605B609A60B9
:1015D000704700BFAFF30080AFF30080AFF300802F
:1015E00040F6C873C2F2000300221B605B609A6081
:1015F000704700BFAFF30080AFF30080AFF300800F
:1016000040F6C873C2F2000300221B605B609A6060
:10161000704700BFAFF30080AFF30080AFF30080EE
:1016200040F6C873C2F2000300221B605B609A6040
:10163000704700BFAFF30080AFF30080AFF30080CE
:1016400040F6C873C2F2000300221B605B609A6020
:10165000704700BFAFF30080AFF30080AFF30080AE
:1016600040F6C873C2F2000301221B605B609A60FF
:10167000704700BFAFF30080AFF30080AFF300808E
:101680004FF080431A692DE9F041920703D4BDE879
:10169000F041FFF7EDB900221A61202383F311888E
:1016A00041F2C0244FF08045C2F200046A6AE08C27
:1016B000E36992B2161A1989B6B28E4204F11C0778
:1016C00024BF4FF0000820261CD31A680144BA42F8
:1016D000E184D9685760E261C3F80C8008BFC5F89F
:1016E0000C8088F311881869884786F311886A6A24
:1016F000E08CE36992B2C0EB020C19891FFA8CFCF2
:101700006145E2D9BB420AD00144891A89B2012954
:1017100098BF02210A4492B24FF080435A630023DB
:1017200083F31188BDE8F041FFF7A2B9AFF3008061
:101730002DE9F041804640F60000C2F20000FFF7BC
:1017400027FD40F66C00C2F20000FFF721FD2023C8
:1017500083F3118841F2C026C2F20006B3699F6B81
:101760003846FFF74DFC40F66403B469C2F200034B
:101770001D46636203E09968A268914202D31B6828
:10178000AB42F8D15A6807202360626014605C6045
:10179000FFF71EFBB3695B6A013302D03846FFF7DF
:1017A0008FFC002383F3118898F80000FEF700FFF8
:1017B00040F66C00C2F20000FFF74AFCBDE8F041C1
:1017C00040F60000C2F20000FFF742BCAFF3008019
:1017D00038B547F2081041F23033C2F20003012558
:1017E000C0F6000047F2E0741D60C0F60004FEF78A
:1017F0003FFF1020FFF714F82046FEF719FF47F2CD
:101800002810C0F60000FEF733FF4FF47A70FFF7A0
:1018100007F82046FEF70CFF47F24810C0F600001C
:10182000FEF726FF0220FEF7FBFF2046FEF700FF33
:1018300047F26810C0F60000FEF71AFFFEF7E0FF5F
:101840002046FEF7F5FE47F28810C0F60000FEF7CE
:101850000FFFFEF7D5FF2046FEF7EAFE47F2A8107D
:10186000C0F60000FEF704FFFEF7CAFF2046FEF7B1
:10187000DFFE47F2C810C0F60000FEF7F9FE28466A
:10188000FEF7CEFF2046FEF7D3FE47F2E810C0F683
:101890000000FEF7EDFEFEF7B3FF2046FEF7C8FEA0
:1018A00047F20820C0F60000FEF7E2FE2846FEF7E9
:1018B000B7FF2046FEF7BCFE47F22820C0F6000026
:1018C000FEF7D6FE2846FEF7ABFF2046FEF7B0FE39
:1018D00047F24820C0F60000FEF7CAFE2846FEF791
:1018E0009FFF2046FEF7A4FE47F26820C0F60000E6
:1018F000FEF7BEFEFEF784FF2046FEF799FE47F294
:101900008820C0F60000FEF7B3FE2846FEF788FFE9
:101910002046FEF78DFE47F2A820C0F60000FEF735
:10192000A7FEFEF76DFF2046FEF782FE47F2C820B5
:10193000C0F60000FEF79CFE2846FEF771FF204629
:10194000FEF776FE47F2E820C0F60000FEF790FEB4
:101950002846FEF765FF2046FEF76AFE47F208308C
:10196000C0F60000FEF784FE2846FEF759FF204629
:10197000FEF75EFE47F22830C0F60000FEF778FE64
:101980002846FEF74DFF2046FEF752FE47F248304C
:10199000C0F60000FEF76CFE2846FEF741FF204629
:1019A000FEF746FE47F26830C0F60000FEF760FE24
:1019B000FEF726FF2046FEF73BFE47F28830C0F6D2
:1019C0000000FEF755FE2846FEF72AFF2046FEF7E8
:1019D0002FFE47F2A830C0F60000FEF749FE284669
:1019E000FEF71EFF2046FEF723FE47F2C830C0F682
:1019F0000000FEF73DFE2846FEF712FF2046FEF7E8
:101A000017FE47F2E830C0F60000FEF731FE284628
:101A1000FEF706FF2046FEF70BFE47F20840C0F631
:101A20000000FEF725FE2846FEF7FAFE2046FEF7E8
:101A3000FFFD47F22840C0F60000FEF719FEFEF752
:101A4000DFFE2046FEF7F4FD47F24840C0F60000F6
:101A5000FEF70EFEFEF7D4FE2046FEF7E9FD47F244
:101A60006840C0F60000FEF703FEFEF7C9FE204600
:101A7000FEF7DEFD47F28840C0F60000FEF7F8FDF5
:101A8000FEF7BEFE2046FEF7D3FD47F2A840C0F6A3
:101A90000000FEF7EDFDFF20FEF7C2FE2046FEF738
:101AA000C7FD47F2C840C0F60000FEF7E1FD802008
:101AB000FEF7B6FE2046FEF7BBFD47F2E840C0F653
:101AC0000000FEF7D5FDFEF79BFE2046FEF7B0FDB9
:101AD00047F20850C0F60000FEF7CAFDFEF790FE80
:101AE0002046FEF7A5FD47F22850C0F60000FEF79D
:101AF000BFFDFEF785FE2046BDE83840FEF798BDE5
:101B000038B547F2485041F23033C2F200030125A4
:101B1000C0F600001D60FEF78BFD47F27450C0F662
:101B2000000047F2E074C0F60004FEF7A1FD28466D
:101B3000FEF776FE2046FEF77BFD47F29450C0F696
:101B40000000FEF795FD47F2B450C0F60000FEF726
:101B50006FFD47F2BC50C0F60000FEF789FD04207F
:101B6000FEF75EFE2046FEF763FD47F2DC50C0F64E
:101B70000000FEF77DFDFEF743FE2046FEF758FD10
:101B800047F2FC50C0F60000FEF772FD0220FEF79F
:101B900047FE2046BDE83840FEF74ABDAFF300805F
:101BA0002DE9F04141F230380123C2F20008C8F8B3
:101BB000003003F0DDF9002427460646202585F392
:101BC000118840F6CC0040F28122C2F20000C0F63B
:101BD00000020121002303F0CBF840F6B80040F2E8
:101BE0008122C0F6000242F210710023C2F200000E
:101BF00003F0BEF840F6CC00C2F20000FEF7F8FE9B
:101C000040F6B800C2F20000FEF7F2FE87F311883A
:101C10004FF080435B6A01349B1B9BB2B3F57A7F24
:101C2000CDD347F21C600223C0F60000C8F8003094
:101C3000FEF71EFD6000FEF7F3FDBDE8F04147F240
:101C40002C60C0F60000FEF7F3BC00BFAFF30080CD
:101C500008B541F2C023C2F200039A6947F2386323
:101C6000C0F600034FF480544FF400759361C4F242
:101C700001042E4626614FF4FA7003F0F9F865610D
:101C80004FF4FA7003F0F4F8F4E700BFAFF300800C
:101C900008B541F2C023C2F200039A6947F23863E3
:101CA000C0F600034FF480544FF480759361C4F282
:101CB00001042E462661FA2003F0DAF86561FA2065
:101CC00003F0D6F8F6E700BFAFF30080AFF3008073
:101CD00010B540F66C04C2F20004322003F0C8F8DC
:101CE0002046FFF755FA2046BDE81040FFF7B0B98F
:101CF00010B50446322003F0BBF8202383F311888B
:101D000001212046FFF74CF9FEF76AFF002383F319
:101D1000118810BDAFF30080AFF30080AFF30080F7
:101D200010B5962003F0A4F8202383F3118840F621
:101D30000004C2F200042046FFF7C2F92046FFF774
:101D40005FF9FEF74DFF002383F3118810BD00BF3C
:101D50002DE9F84341F2C024C2F20004A36941F224
:101D600030359F6840F6501007F1010841F6D14226
:101D700047F240634146C2F200050226C0F6000267
:101D8000C0F60003C2F200002E6003F0C1FD40F671
:101D9000D476C2F2000607F1020941F6215247F259
:101DA00044634946C0F600023060C0F60003424872
:101DB00003F0AEFD706040F66C000323C2F2000039
:101DC0002B60FFF7E5F9A36947F248619868C0F610
:101DD00000013A1A50425041FEF792FC08B1BDE8AA
:101DE000F883042364202B6003F042F8A36947F2D0
:101DF00048619868C0F60001B8EB000358425841AA
:101E0000FEF77EFC0028EAD140F600000523C2F26E
:101E100000002B60FFF7BCF9A36947F2486198689E
:101E2000C0F60001B8EB000CDCF1000050EB0C0038
:101E3000FEF766FC0028D2D1062364202B6003F055
:101E400017F8A36947F248619868C0F60001B9EB3A
:101E5000000EDEF1000050EB0E00FEF751FC0028F2
:101E6000BDD140F600000723C2F200002B60FFF74F
:101E7000EFF8A36947F248619868C0F60001B8EB33
:101E8000000670427041FEF73BFC0028A7D140F6E7
:101E90006C000823C2F200002B60FFF7D9F8A36999
:101EA00047F248619868C0F600013C1A6042604100
:101EB000BDE8F843FEF724BC980A0020AFF3008089
:101EC00008B5322002F0D4FF202383F3118840F6B6
:101ED000C870C2F20000FFF72BFAFEF781FE002364
:101EE00083F3118808BD00BFAFF30080AFF300801B
:101EF00041F2C023C2F200039B6910B458624468E7
:101F0000024683E814000520236053605DF8044B0B
:101F100002F07EBFAFF30080AFF30080AFF300802C
:101F200010B5202383F3118840F61C04C2F200048C
:101F3000A268531E002BA3600BDBE06840F61C0375
:101F4000C2F2000388B10268DA60002383F31188CB
:101F500010BD88B101462046FFF7CAFF0028ECD02B
:101F60000020002383F3118810BD5A69002AF7D09E
:101F7000186904219047E8E7A260E6E7AFF3008024
:101F800008B541F23033C2F20003012264201A6026
:101F9000FFF7C6FFBDE8084047F26061D0F10100DD
:101FA00038BF0020C0F60001FEF7AABBAFF30080E7
:101FB000202383F3118840F66C03C2F200039A6871
:101FC00000201AB1002383F31188704741F2C02228
:101FD000C2F2000292690120916B9A60D96093630A
:101FE000002383F311887047AFF30080AFF30080C4
:101FF00030B440F6380340F6B872C2F20003C2F2C1
:10200000000203F1180402F1100503F12000002181
:102010005D609C61DC611A60DA609A6018625862E7
:102020001961197530BC7047AFF30080AFF30080C1
:1020300040F6501210B40021C2F20002CC2440F647
:10204000E00382E81200C2F2000303F11000D9603D
:102050009A6018615861196099615DF8044B704786
:1020600040F61C03C2F20003002204211B605B60E7
:102070001961DA605A619A60704700BFAFF300805F
:1020800041F2C023C2F2000310B59C69202383F300
:1020900011880320FEF79CFE636A002BF9D0002311
:1020A00083F3118810BD00BFAFF30080AFF3008051
:1020B0002DE9F84341F2C025C2F20005AB6941F2B7
:1020C00030340222C2F200049E682260FFF770FFE3
:1020D00047F27061C0F60001FEF712FB08B1BDE8DF
:1020E000F88303232360FFF763FF47F2806180F0EA
:1020F0000100C0B2C0F60001FEF702FB0028EED1DD
:1021000040F66C07C2F20007384604232360FEF74E
:102110009FFFB86847F28C61D0F1010038BF002002
:10212000C0F60001FEF7ECFA0028D8D1386847F273
:102130009861B0EB070CDCF1000050EB0C00C0F62E
:102140000001FEF7DDFA0028C9D1AB6947F248610A
:102150009868C0F60001B6EB000EDEF1000050EB0F
:102160000E0005232360FEF7CBFA0028B7D1062323
:102170002360FFF71DFF47F27061C0F60001FEF714
:10218000BFFA0028ABD1FFF713FF47F2806180F060
:102190000100C0B2C0F60001FEF7B2FA00289ED1DD
:1021A000D5F81890202383F31188D9F8383003B379
:1021B0004FF000081A68D9689342C9F8381008BF70
:1021C000C3F808800BD0D2F838E0116810461960C7
:1021D0004B609A60C3F80CE09363FEF791FED9F868
:1021E0003830002BE6D1D9F83C30C9F80830FEF77A
:1021F000F7FC002383F31188B86847F28C61D0F1B3
:10220000010038BF002040F66C07C0F60001C2F2A2
:102210000007FEF775FA00287FF461AF386847F2CF
:102220009861C21B50425041C0F60001FEF768FAA7
:1022300000287FF454AFAB6947F248619868C0F654
:102240000001331A5842584107232360BDE8F84380
:10225000FEF756BAAFF30080AFF30080AFF3008013
:102260002DE9F04F41F23839C2F20009002818BFB9
:10227000814609F1100B01F1070A83B058468846E0
:102280004FEADA0AFEF784FF09F108060DE0596803
:102290004C1CE400A4F108001C440744A2424FEA8D
:1022A000E70701D2BA4521D91E46336803F10F056D
:1022B00025F00705A5F108029F1A03F1080C002B71
:1022C000E5D15846FEF7C4FED9F80030002B49D0BE
:1022D0000AF101000821C0000A46984718B140F8E9
:1022E000089C40F8048C03B0BDE8F08F9A4221D8D6
:1022F0008A451DBF0AF1010A1A68A0EBCA001968D5
:102300001DBF03EBCA01C01043F83A201A461CBF98
:1023100048601A463160C2F80480C2F800905846FE
:10232000CDF804C0FEF794FEDDF804C0604603B0AB
:10233000BDE8F08FBA45CCEB02014FEAE1013EBFA8
:102340000AF101001C686FEA0A0A59603DBF574450
:1023500002EBC0014F60AC463EBF42F83040AC4695
:102360001960D8E71846BEE7AFF30080AFF30080EE
:10237000F8B5064640F66C00C2F20000FEF708FF12
:10238000202383F3118841F2C023C2F200039C6929
:10239000A76B3846FEF734FE40F66403C2F2000332
:1023A0001D46636203E09968A268914202D31B68EC
:1023B000AB42F8D15A6807202360626014605C6009
:1023C000FEF706FD3846FEF77BFE002383F31188F7
:1023D0003078FEF7EDF8BDE8F84040F66C00C2F248
:1023E0000000FEF735BE00BFAFF30080AFF3008002
:1023F000F8B541F23033C2F20003012747F26876A4
:102400001F60C0F600060024072501E0013475B105
:1024100025FA04F3DB07F9D507FA04F256F824305D
:10242000204625EA020501349847002DF0D147F2F5
:10243000A86047F2AC61C0F60000C0F60001BDE83C
:10244000F840FEF72DB900BFAFF30080AFF3008076
:102450002DE9F04140F6E00084B041F23034012330
:1024600001A9C2F20004C2F2000000222360FEF7BC
:10247000CFFE471E784247F2C0617841C0F60001A6
:10248000FEF73EF910B104B0BDE8F08140F6E0007F
:1024900002234FF44D61C2F200002360FFF7E0FE1B
:1024A00047F2D061D0F1010038BF0020C0F6000132
:1024B000FEF726F90028E6D140F6E00003231021BC
:1024C000C2F200002360FFF7CBFE47F2E861054649
:1024D000003018BF0120C0F60001FEF711F90028F6
:1024E000D1D12846FEF7CCFE40F6E000042302A935
:1024F000C2F2000003AA2360FEF78AFE461E0346CE
:1025000047F2FC6170427041C0F600010093FEF793
:10251000F7F80028B7D1029847F210710F2894BF3E
:1025200000200120C0F60001FEF7EAF80028AAD139
:102530000298039B47F21071C51A68426841C0F6C1
:102540000001FEF7DDF8054600289CD140F6E000CA
:1025500005231021C2F200002360FFF781FE074629
:1025600040F6E0001021C2F20000FFF779FE0646B7
:1025700040F6E0001021C2F20000FFF771FE804635
:102580003846FEF77DFE3046FEF77AFE4046FEF7FF
:1025900077FE40F6E0002A466946C2F20000FEF7E8
:1025A00037FE421E504247F2C0615041C0F6000162
:1025B000FEF7A6F8054600287FF465AF40F6E00078
:1025C00006231021C2F200002360FFF749FE0646F1
:1025D00040F6E0001021C2F20000FFF741FE07467E
:1025E00040F6E0001021C2F20000FFF739FEFEF7CE
:1025F00047FE3846FEF744FE3046FEF741FE40F601
:10260000E0002A466946C2F20000FEF701FE431EC2
:10261000584247F2C0615841C0F60001FEF770F819
:10262000054600287FF42FAF40F6E0000723112174
:10263000C2F200002360FFF713FE064640F6E000FA
:102640001021C2F20000FFF70BFE07463046FEF7EE
:1026500017FE40F6E0002A466946C2F20000FEF787
:10266000D7FDB0F10208D8F1000047F2287150EB15
:102670000800C0F60001FEF743F8054600287FF485
:1026800002AF40F6E0001021C2F20000FFF7E8FDC3
:10269000064640F6E0002A46C2F200006946FEF710
:1026A000B7FD012800F0DD8040F6E000C2F2000036
:1026B00069460022FEF7ACFDB0F1020CDCF100002F
:1026C00050EB0C0047F2C061C0F60001FEF718F8AD
:1026D000054600287FF4D7AE3846FEF7D1FD3046D8
:1026E000FEF7CEFD40F6E0002A466946C2F2000041
:1026F000FEF78EFDB0F1010EDEF1000047F2C06181
:1027000050EB0E00C0F60001FDF7FAFF0546002869
:102710007FF4B9AE40F6E00008231021C2F20000B9
:102720002360FFF79DFD044640F6E0001021C2F251
:102730000000FFF795FD06462046FEF7A1FD40F696
:10274000E0002A466946C2F20000FEF761FD871EDE
:10275000784247F228717841C0F60001FDF7D0FFBA
:1027600041F230340546C2F2000400287FF48BAEFB
:1027700040F6E0002021C2F20000FFF771FDFEF7F5
:102780007FFD3046FEF77CFD40F6E0002A466946B4
:10279000C2F20000FEF73CFD451E684247F2C061F0
:1027A0006841C0F60001FDF7ABFF024600287FF448
:1027B0006AAE40F6E00009236946C2F200002360D9
:1027C000FEF726FD40F6E0000099C2F20000FFF798
:1027D00047FD47F2E86106460030C0F6000118BF29
:1027E0000120FDF78DFF014600287FF44CAE40F636
:1027F000E0000A46C2F20000FEF70AFD47F2387117
:10280000D0F1010038BF0020C0F60001FDF778FFCD
:10281000054600287FF437AE3046FEF731FD40F61E
:10282000E00069460A232A46C2F200002360FEF750
:10283000EFFC441E604247F2C0616041C0F60001F7
:10284000FDF75EFF00287FF41EAE9DE80900C21A66
:10285000504247F244715041C0F60001FDF750FF6D
:1028600011E601202EE700BFAFF30080AFF3008038
:1028700070B541F2303482B0012301AA6946C2F238
:10288000000400202360FEF7C3FC40F6E0001021A6
:10289000C2F20000FFF7E4FC47F2E86106460030B0
:1028A00018BF0120C0F60001FDF72AFF054608B158
:1028B00002B070BD3046FEF7E3FC022328466FF0FD
:1028C000FF012360FFF7CCFC47F2D061D0F101009B
:1028D00038BF0020C0F60001FDF712FF02B070BD46
:1028E000026810B49042034609D0116800240160C8
:1028F0004B60546210465DF8044BFEF701BB5DF877
:10290000044B7047AFF30080AFF30080AFF300805B
:102910002DE9F04741F22005C2F200056E6FD6F8AE
:102920000C903368D9059CB200F18680202383F394
:10293000118814F02F0F49D041F22008C2F200088C
:1029400009E0A106776895F878A01FD43468A4B28E
:1029500014F02F0F3AD02207F3D014F0080F14BF51
:1029600080210021E30748BF41F02001A70748BFAD
:1029700041F04001600748BF41F480715248FEF7C2
:1029800027FBA106776895F878A0DFD5D8F8143032
:10299000002B3FD02B6A6A6A934243D069695A1C64
:1029A0000AEA070701312A6269611F702A6AEB6926
:1029B0009A4203D3D8F81830C8F820304348FFF7BC
:1029C0008FFF3468A4B214F02F0FC4D1002383F317
:1029D000118819F0800F01D022063CD4630615D56A
:1029E000202383F311886A6CAB6C41F220009A4279
:1029F000C2F2000051D04FF6BF7309EA03036FF033
:102A00004002F3600023326083F31188BDE8F04791
:102A1000FEF72EB82C480421FEF7DAFA2B6A6A6A10
:102A20009342BBD1D8F81420002AB7D026484FF4DF
:102A30008061FEF7CDFA89E7202383F311884FF4F4
:102A40000071281DFEF7C4FA6FF480733360002311
:102A500083F311886AE7202383F31188AB6C6A6CD7
:102A600041F220009A42C2F200001ED0AA6B286CEC
:102A7000591C0132AA63A96441F2200281421F78E5
:102A8000C2F2000201D3D36B93641148FFF728FF11
:102A90007760002383F31188A0E7836B002BAAD013
:102AA00004301021FEF794FAA5E7826B002ADDD0EE
:102AB00004300821FEF78CFA4FF63F7309EA03034E
:102AC00043F04003F360E4E7241000202C100020C2
:102AD00050100020AFF30080AFF30080AFF3008010
:102AE00040F63803C2F200031A7D10B5AAB91A697C
:102AF000002A15DDDA685968146804328A42DA60FF
:102B000028BF1A68046028BFDA601A690648013ACB
:102B10001A61FFF7E5FE002010BD6FF0010010BD47
:102B20004FF0FF3010BD00BF50080020AFF3008011
:102B300038B540F63803C2F200031A7DB2B91A69FB
:102B400093E81200651AC2EBA502002A11DDDA68CB
:102B5000043A914288BF221FDA6010601A69064861
:102B600001321A61FFF7BCFE002038BD6FF0010092
:102B700038BD4FF0FF3038BD58080020AFF300805B
:102B800038B540F63803C2F200031A7DBAB91D68A1
:102B90005A681969541BC1EBA401002912DD9C6815
:102BA000211D996020608A421A69084802F10102D9
:102BB00098BF9D601A61FFF793FE002038BD6FF04B
:102BC000010038BD4FF0FF3038BD00BF580800206D
:102BD00038B50368044683420BD06FF001051A68CC
:102BE0001846226054605D62FEF78AF92368A342AA
:102BF000F5D138BDAFF30080AFF30080AFF30080B4
:102C000010B5202383F3118840F6C874C2F2000483
:102C1000A3680133002BA36021DD013B40F6C8729D
:102C2000002BA360C2F2000206DBFDF7D9FF0020F3
:102C3000002383F3118810BD41F2C023C2F20003C8
:102C40009C695368052084E80C001C606262546033
:102C5000FEF7BEF8606A002383F3118810BD206878
:102C600003685C602360FEF74BF900234362A368AE
:102C7000D3E700BFAFF30080AFF30080AFF3008075
:102C800008B5202383F3118840F66403C2F20003E1
:102C90001868984205D00268002153601A60FEF758
:102CA0003FF8002383F3118808BD00BFAFF3008015
:102CB00040F66403C2F200031A6810B49A4209D0C5
:102CC000116800244B605462104619605DF8044B93
:102CD000FEF716B95DF8044B704700BFAFF30080F4
:102CE000202383F3118841F2C023C2F200039A69C2
:102CF0000023506B536383F311887047AFF3008058
:102D0000FFF7EEBFAFF30080AFF30080AFF30080BA
:102D1000FFF7E6BFAFF30080AFF30080AFF30080B2
:102D2000FFF7DEBFAFF30080AFF30080AFF30080AA
:102D3000FFF7D6BFAFF30080AFF30080AFF30080A2
:102D4000FFF7CEBFAFF30080AFF30080AFF300809A
:102D500008B5FFF7C5FF40F6600240F63403C2F243
:102D60000002C2F2000312601B6008BDAFF30080D6
:102D700041F2C023C2F2000310B59C69202383F303
:102D80001188636B33B94FF0FF3363620A20FEF79B
:102D90001FF8636B5842184023EA00036363002363
:102DA00083F3118810BD00BFAFF30080AFF3008044
:102DB00041F2C023C2F2000310B59C69202383F3C3
:102DC0001188606B30B94FF0FF330A206362FDF762
:102DD000FFFF606B0023636383F3118810BD00BFA6
:102DE00041F2C023C2F2000310B59C69202383F393
:102DF0001188636B03F00502052A05D00523636281
:102E00000B20FDF7E5FF636B23F0050363630023ED
:102E100083F31188052010BDAFF30080AFF300806D
:102E20002DE9F041054640F6201086B00E46C2F26C
:102E30000000294690461F46FFF712FAE0B140F223
:102E4000E1540544C0F60004029500960190CDF8C7
:102E50000C8005970494202383F311886846FDF7BE
:102E600077FE012380F8213000210446FDF758FF4A
:102E7000002383F31188204606B0BDE8F08100BF2F
:102E8000F0B540F64014C2F2000487B00546204673
:102E90000F461646FDF71CFEE8B1626840F2E153AA
:102EA0000244C0F600030493009501900397059631
:102EB0000292202383F311886846FDF749FE02231E
:102EC00080F82130046400210546FDF729FF002326
:102ED00083F31188284607B0F0BD00BFAFF3008030
:102EE0004FF080435B6A091A1B1A89B29BB28B426E
:102EF00010B438BF002013D341F2140441F21C0176
:102F000041F2180347F254720120C2F20004C2F2E7
:102F10000001C2F20003C0F60002207008701A60BF
:102F20005DF8044B704700BFAFF30080AFF3008043
:102F3000F0B540F6600341F23035C2F20003C2F250
:102F4000000502228BB01B602A60202383F31188C6
:102F500040F66003C2F2000341F2C0221868C2F2D8
:102F6000000291690AAE01274FF0FF3446F8280DA0
:102F700000220191029704941E60039282F311884B
:102F8000202383F3118840F6600341F2C022C2F28D
:102F90000003C2F20002186892690AAF0692022189
:102FA00047F8140D0022079109941F60089282F3DC
:102FB0001188202383F3118840F66004C2F20004D4
:102FC000206847F27471001B18BF0120C0F6000191
:102FD000FDF796FB20B1002383F311880BB0F0BD01
:102FE00080F3118840F6600003236946C2F20000B6
:102FF0002B60FDF795FD202383F31188206847F2AD
:103000007471001B18BF0120C0F60001FDF778FBAA
:103010000028E0D180F3118840F66000042339468F
:10302000C2F200002B60FDF77BFD202383F31188A3
:10303000206847F28071031B58425841C0F60001D6
:10304000FDF75EFB0028C6D180F31188C6E700BFFC
:103050002DE9F04741F2303840F61C04C2F2000876
:103060000123C2F2000440F60015C8F80030A24661
:10307000C2F2000504264FF02009002789F31188C9
:10308000E36840F61C00C2F200002B60E560FEF72A
:103090004FF9FDF7A5FD87F31188DAF8103040F6F7
:1030A0001C04013E1D44C2F20004E7D10223C8F80B
:1030B000003004250020FEF733FF47F29071003006
:1030C00018BF0120C0F60001FDF71AFB002856D1F9
:1030D000013DEFD10323C8F80030FEF721FF47F28E
:1030E0006061D0F1010038BF002041F23037C0F6F6
:1030F0000001C2F20007FDF703FB00283FD140F6B4
:103100000016C2F2000604233B6006F110092027D6
:10311000324687F31188E36840F61C00C2F20000D3
:1031200046F8043BE260FEF703F9FDF759FD85F32D
:1031300011884E45ECD10523C8F800300424002046
:10314000FEF7EEFE47F29071003018BF0120C0F686
:103150000001FDF7D5FA90B9013CF0D10623C8F87B
:103160000030FEF7DDFEBDE8F04747F26061D0F1C8
:10317000010038BF0020C0F60001FDF7C1BABDE86C
:10318000F08700BFAFF30080AFF30080AFF30080A3
:1031900070B520260025FDF733FE446A86F31188BA
:1031A0002146FDF7BDFD85F31188002CF3D170BDDC
:1031B00008B5202383F31188002383F3118820238B
:1031C00083F31188EFF311831BB9FEF759F9FDF76B
:1031D00097FD002383F3118808BD00BFAFF3008083
:1031E000F8B541F2303640F610040122C2F2000672
:1031F000C2F2000440F6001332602746C2F2000318
:1032000004222025002085F311882168236019609D
:1032100080F31188796840F61004013A0B44C2F239
:103220000004F0D102233360042540F61000C2F2FE
:103230000000FDF74DFC47F29071003018BF0120EF
:10324000C0F60001FDF75CFA002856D1013DECD133
:1032500040F610000323C2F200003360FDF738FC93
:1032600047F26061D0F1010038BF002041F23037F1
:10327000C0F60001C2F20007FDF742FA00283CD177
:1032800040F60013C2F20003042203F1100E3A606C
:10329000202080F311882268236043F8042B85F3F3
:1032A00011887345F5D105233360042540F61004D9
:1032B000C2F200042046FDF70BFC47F2907100308B
:1032C00018BF0120C0F60001FDF71AFAA8B9013DA8
:1032D000ECD1062320463360FDF7FAFB47F260612C
:1032E000D0F1010038BF002041F23036C0F60001B5
:1032F000C2F20006FDF704FA00B1F8BD40F2B123B6
:10330000C0F6000307210422204631602560A36037
:103310006260FDF7DDFBBDE8F84047F29C71D0F13B
:10332000010038BF0020C0F60001FDF7E9B900BF79
:1033300041F2C023C2F200039B692DE9F0419F686E
:1033400041F230380123C2F200081F44C8F80030AF
:1033500001F00EFE002406464FF0804540F6501066
:1033600046F6D1620023C0F600023946C2F20000E0
:1033700002F0CEFA02F0ECFB6B6A01349B1B9BB2AD
:10338000B3F57A7FEAD347F21C600223C0F600004F
:10339000C8F80030FDF76CF92046FDF741FABDE8AA
:1033A000F04147F2B870C0F60000FDF741B900BF28
:1033B00041F2C023C2F200039B692DE9F04141F2C2
:1033C00030389F68C2F200080123C8F8003001F0CD
:1033D000CFFD013F002406464FF0804540F65010D7
:1033E00046F6D1620023C0F600023946C2F2000060
:1033F00002F08EFA02F0E4FB6B6A01349B1B9BB275
:10340000B3F57A7FEAD347F21C600223C0F60000CE
:10341000C8F80030FDF72CF92046FDF701FABDE8A9
:10342000F04147F2B870C0F60000FDF701B900BFE7
:1034300041F2C023C2F200039B692DE9F04799686D
:1034400041F2303A40F6501042F281020131C2F2AC
:10345000000A0124C0F600020023C2F20000CAF8EC
:10346000004002F055FA40F6D4730222C2F2000383
:103470000446CAF80020186001F07AFD0025A9462C
:10348000804620274FF0804687F311880021204690
:10349000FDF746FC20460021FDF742FC20460021B6
:1034A000FDF73EFC20460021FDF73AFC89F3118828
:1034B000736A0435C8EB03039BB2B3F57A7FE3D399
:1034C0000323CAF80030202383F311884FF0FF3123
:1034D0002046FDF725FC002383F3118802F090FBC2
:1034E00041F2303347F21C60C2F200030422C0F6FE
:1034F00000001A60FDF7BCF86800FDF791F9BDE81F
:10350000F04747F2C470C0F60000FDF791B800BF65
:103510002DE9F04341F2303983B041F2C02802ACCA
:10352000C2F20008C2F200090122002344F8043D5F
:10353000C9F8002001F01CFDD8F8183040F65017EB
:10354000996840F24156C2F20007C0F600062346D1
:1035500032460139384602F0DBF9D8F8183040F627
:10356000D4759968C2F200052860324623460139B5
:1035700007F5A47002F0CCF9D8F8183068609968A3
:103580003246234607F52470013902F0C1F9D8F814
:103590001830A86099683246234607F576700139DD
:1035A00002F0B6F9D8F8183032469968E860013967
:1035B000234607F5A46002F0ABF9022328614FF41B
:1035C0007A70C9F8003001F053FCFCF7D1FF02F02B
:1035D00017FB47F21C600323C0F60000C9F8003057
:1035E000FDF746F80198FDF71BF947F2C470C0F6E5
:1035F0000000FDF71DF803B0BDE8F083AFF30080D5
:10360000F8B541F2C025C2F20005AB6941F230378E
:10361000996840F6501040F691620531C2F20007F9
:103620000124C0F600020023C2F200003C6002F058
:103630006FF9AB6940F6D4749968C2F2000440F6A1
:10364000916220600431C0F600020023344802F089
:103650005FF9AB6940F691629968C0F6000260605C
:10366000033100232F4802F053F9AB6940F6916211
:103670009968C0F60002A060023100232A4802F0D7
:1036800047F9AB6940F691629968C0F60002E060C4
:1036900001310023254802F03BF9022320613B6001
:1036A00001F066FC002406464FF0804540F61010FD
:1036B000C2F200000021FDF753FE6B6A01349B1B30
:1036C0009BB2B3F57A7FF1D303233B60FCF750FF45
:1036D00040F610100021C2F20000FDF741FE02F09A
:1036E0008FFA47F21C600423C0F600003B60FCF731
:1036F000BFFF2046FDF794F847F2D070C0F60000F7
:10370000FCF7B6FF04EB44004000FDF789F8BDE884
:10371000F84047F2C470C0F60000FCF789BF00BF54
:10372000980A0020E00B0020280D0020700E0020D9
:103730002DE9F04141F2C026C2F20006B36940F61D
:1037400050159968C2F2000541F2303743F29112E8
:10375000C2F20007013128460124C0F6000200230E
:103760003C6002F0D5F8B36940F6D474996846F627
:10377000D168C2F20004C0F600084FF0020E2060CB
:103780004246023905F5A4700023C7F800E002F0B4
:10379000BFF8B36960609968424605F52470033943
:1037A000002302F0B5F8B369A0609968424605F5B8
:1037B00076700439002302F0ABF8B3694246996889
:1037C000E060053905F5A460002302F0A1F80323A9
:1037D000206120683B6001F08BFC044602F010FA87
:1037E00047F21C600423C0F600003B60FCF740FF7A
:1037F0002046FDF715F847F2E470C0F60000FCF72C
:1038000037FF6000FDF70CF8BDE8F04147F2C470E7
:10381000C0F60000FCF70CBFAFF30080AFF30080F0
:1038200038B541F2C023C2F200039B6941F2303443
:10383000996840F6501043F291120131C2F200042F
:103840000125C0F600020023C2F20000256002F04C
:103850005FF840F6D4730222C2F2000322601860BF
:1038600001F046FC054602F0CBF947F21C60032349
:10387000C0F600002360FCF7FBFE2846FCF7D0FFF3
:1038800047F2E470C0F60000FCF7F2FE6800FCF7B7
:10389000C7FFBDE8384047F2C470C0F60000FCF72F
:1038A000C7BE00BFAFF30080AFF30080AFF300806E
:1038B00038B541F2C023C2F200039B6941F23034B3
:1038C000996840F6501043F291120139C2F2000497
:1038D0000125C0F600020023C2F20000256002F0BC
:1038E00017F840F6D4730222C2F200032260186077
:1038F00001F0FEFB054602F083F947F21C6003234A
:10390000C0F600002360FCF7B3FE2846FCF788FFF2
:1039100047F2E470C0F60000FCF7AAFE6800FCF76E
:103920007FFFBDE8384047F2C470C0F60000FCF7E6
:103930007FBE00BFAFF30080AFF30080AFF3008025
:10394000F8B541F230355F4BC2F20005012240F676
:1039500040112A6003F11007C2F200012026002462
:1039600053F8042F86F31188086810600A6084F306
:103970001188BB42F4D141F2C023C2F200039B691B
:1039800047F2F0709E6847F240620323711EC0F652
:103990000002C0F600002B60FFF772FA40F6D47404
:1039A000C2F20004206047F2446247F2F870B11E90
:1039B000C0F60002C0F60000FFF762FA47F6080200
:1039C000606047F60000F11EC0F60002C0F600007D
:1039D000FFF756FA47F61402A06047F60C00311FB5
:1039E000C0F60002C0F60000FFF74AFA47F6A4123C
:1039F000E06047F61800C0F60002711FC0F6000034
:103A0000FFF73EFA2368042220612A6018463BB182
:103A1000606828B1A06818B1E068003018BF0120C4
:103A200047F62001C0F60001FCF76AFE00B1F8BDC0
:103A3000206947F63801D0F1010038BF0020C0F6F8
:103A40000001FCF75DFE0028F1D105232B6002F098
:103A5000D7F847F6540047F2AC6141F23034C0F673
:103A60000000C0F60001C2F20004FCF719FE0028B5
:103A7000DDD106232360042440F64010C2F200008A
:103A8000FDF726F847F65C01003018BF0120C0F6AC
:103A90000001FCF735FE0028C9D1013CECD140F60D
:103AA0004010C2F20000FDF713F8BDE8F84047F6F9
:103AB0006C01D0F1010038BF0020C0F60001FCF716
:103AC0001FBE00BF24790008AFF30080AFF3008071
:103AD000F0B541F2C023C2F2000385B09D6941F206
:103AE000303440F6201002236946C2F20004C2F2CC
:103AF000000001AAAE682360FDF78AFB471E054659
:103B000047F2C06178427841C0F60001FCF7F8FD49
:103B100008B105B0F0BD47F2F07147F24063C0F65E
:103B20000001C0F6000303274FF4A470721E276043
:103B3000FFF776F940F6D477034647F620010030C8
:103B4000C2F2000718BF0120C0F600013B60FCF77D
:103B5000D7FD0028DDD147F2F87147F24463C0F683
:103B60000001C0F600034FF0040E4FF4A470B21E23
:103B7000C4F800E0FFF754F947F62001034600308F
:103B800018BF0120C0F600017B60FCF7B9FD0028DA
:103B9000BFD1C82047F6000147F60803F21EC0F661
:103BA0000001C0F60003C0F2020005262660FFF700
:103BB00037F947F638010346D0F1010038BF00203D
:103BC000C0F60001BB60FCF79BFD0028A1D10623D5
:103BD000236002F015F847F6800047F2AC61C0F6AA
:103BE0000000C0F60001FCF75BFD002891D140F613
:103BF0002010072302A9C2F2000003AA2360FDF7E8
:103C000007FB2D1A684247F684016841C0F600019F
:103C1000FCF776FD00287FF47CAF0098029B47F606
:103C20009C01C41A60426041C0F60001FCF768FDC7
:103C300000287FF46EAF0198039B47F6B801C21AC3
:103C400050425041C0F60001FCF75AFD61E700BF49
:103C500038B541F230340123C2F20004052023605C
:103C6000FCF74EFF02232360FFF7BAF8B0F1050C12
:103C7000DCF1000047F6D80150EB0C00C0F6000163
:103C8000FCF73EFD00B138BDFFF72AF847F6F0011A
:103C9000D0F1010038BF0020C0F60001FCF730FD74
:103CA0000028F0D1032304202360FCF729FF04231C
:103CB000236001F05DF941F2C023C2F200039B6969
:103CC0000546996840F6501041F6F1420139C0F6B8
:103CD0000002C2F2000001F01BFE40F6D473C2F2F3
:103CE0000003052222601860FFF77AF805F134011D
:103CF000044605F1320080B289B2FFF7F1F80028DE
:103D0000C1D1B4F1050EDEF1000047F6FC0150EB25
:103D10000E00C0F60001FCF7F3FC0028B3D1FEF75B
:103D2000DFFF47F6F001D0F1010038BF0020C0F6F8
:103D30000001FCF7E5FC0028A5D1BDE8384001F002
:103D40005FBF00BFAFF30080AFF30080AFF3008030
:103D500038B5202383F3118840F63804C2F20004FA
:103D60002368012204F1180000252275A360E36096
:103D70002561FEF72DFF04F12000FEF729FFFCF777
:103D80002FFF85F3118838BDAFF30080AFF30080BB
:103D900030B541F23035C2F20005012383B02B600B
:103DA000422420464FF6FF7101F032FB47F6101116
:103DB000D0F1010038BF0020C0F600010134FCF74B
:103DC0009FFC90B9462CECD10223012158202B6096
:103DD00001F01EFBB0F1FF33584247F61011584175
:103DE000C0F60001FCF78CFC08B103B030BD202305
:103DF00083F311885820FEF7C3FE002383F3118854
:103E0000B0F1FF3CDCF1000047F6101150EB0C0064
:103E1000C0F60001FCF774FC0028E6D1012158200F
:103E200001F03EFBB0F1FF3EDEF1000047F610115D
:103E300050EB0E00C0F60001FCF762FC0028D4D164
:103E4000202383F311885820FEF772FE002383F3AA
:103E50001188B0F1FF34604247F610116041C0F69E
:103E60000001FCF74DFC04460028BED103232B6063
:103E7000FFF76EFF40F63803C2F20003042201216F
:103E800001A81C752A6001F053FBB0F1FF325042CB
:103E900047F610115041C0F60001FCF731FC002834
:103EA000A3D1202383F3118801A8FEF719FE002374
:103EB00083F31188B0F1FF33584247F6101158418F
:103EC000C0F60001FCF71CFC8FE700BFAFF30080D9
:103ED000FFF73EBFAFF30080AFF30080AFF3008089
:103EE000FFF736BFAFF30080AFF30080AFF3008081
:103EF000FFF72EBFAFF30080AFF30080AFF3008079
:103F000070B541F2303541F2C024C2F20005012300
:103F1000C2F200042B60A269202383F31188536B43
:103F200053B983F3118847F63C110120C0F6000114
:103F3000FCF7E6FBA0B170BD5842184023EA00032D
:103F40005363002383F3118847F63C11D0F101003D
:103F500038BF0020C0F60001FCF7D2FB0028EAD1F0
:103F6000A369202282F311885A6B002A35D00022DF
:103F70005A6382F3118847F63C11C0F60001FCF742
:103F8000BFFB0028D7D1A369202282F311885A6B86
:103F900001327AD0002383F31188012047F63C11C7
:103FA000C0F60001FCF7ACFB0028C4D102232B6053
:103FB000A669202383F31188756B95B94FF0FF3301
:103FC00073620A20322100F023FF0028A8BF756B1E
:103FD00007DA85F3118801200FE082F311880120B0
:103FE000C9E76842284025EA00057563002383F38A
:103FF0001188D0F1010038BF002047F63C11C0F60F
:104000000001FCF77DFB002895D1A569202383F3EF
:1040100011886E6B56B94FF0FF336B620A20322164
:1040200000F0F6FE0028A8BF6E6B33DB00236B6345
:1040300083F31188D6F1010038BF002047F63C1108
:10404000C0F60001FCF75CFB054600287FF473AF67
:10405000A469202383F31188636B013308D04FF0E8
:10406000FF3363620B20322100F0D2FE002815DB03
:104070000023636383F3118847F63C112846C0F69A
:104080000001BDE87040FCF73BBB00225A6382F39D
:10409000118883E786F311880120CFE7002383F39B
:1040A00011880125E8E700BFAFF30080AFF300807F
:1040B00070B541F2303484B001ADC2F20004012287
:1040C00000230393226001950295202383F3118836
:1040D000039847F64C110028CCBF00200120C0F601
:1040E0000001FCF70DFB20B1002383F3118804B01D
:1040F00070BD80F311880223284600212360FDF75C
:104100002FF9202383F31188039847F64C110028D8
:10411000CCBF00200120C0F60001FCF7F1FA002816
:10412000E2D180F3118841F2C023C2F200039B69FF
:1041300040F65010996844F2812201392B46C0F6AE
:1041400000020326C2F20000266001F0E1FB40F607
:10415000D473C2F200031860042328462360FCF7DE
:104160006FFE2023064683F31188039847F64C110F
:104170000028CCBF00200120C0F60001FCF7C0FAE7
:104180000028B1D180F3118847F65811D6F101000B
:1041900038BF0020C0F60001FCF7B2FA0028A6D113
:1041A00005232360202383F31188039B002B5BDD11
:1041B000FCF716FD002383F31188202383F3118875
:1041C000039847F66C110028D4BF00200120C0F6E8
:1041D0000001FCF795FA002886D180F3118820238E
:1041E00083F31188039847F67811421E50425041DC
:1041F000C0F60001FCF784FA00287FF475AF80F365
:10420000118806232360202383F31188039B002B4E
:104210002EDDFCF7E5FC002383F31188202383F3D4
:104220001188039847F650110028D4BF00200120C0
:10423000C0F60001FCF764FA00287FF455AF80F364
:104240001188202383F31188039847F67811431EC1
:1042500058425841C0F60001FCF752FA00287FF49A
:1042600043AF80F3118842E72846FDF761F89FE7E6
:104270002846FDF75DF8CCE7AFF30080AFF3008090
:1042800008B5202383F311888368002B05DDFCF734
:10429000A7FC002383F3118808BDFDF749F8FCF75C
:1042A0009FFC002383F3118808BD00BFAFF300809B
:1042B0002DE9F84341F23035C2F2000501232B60AD
:1042C000202383F3118840F6C874C2F20004A36867
:1042D000013B5ABFA36000200120002383F3118813
:1042E00047F61011C0F60001FCF70AFA08B1BDE864
:1042F000F883206847F29861B0EB0409D9F1000017
:1043000050EB090040F6C876C0F60001C2F2000684
:10431000FCF7F6F90028EAD1B06847F68C11D0F125
:10432000010038BF0020C0F60001FCF7E9F90346A0
:104330000028DCD141F2C022C2F20002926940F6AC
:104340005010916841F6C1620139C0F600020226A0
:10435000C2F200002E6001F0DBFA40F6D473C2F224
:1043600000031860202383F31188A368013B002B0E
:10437000A360A8BF0126C0F29280002383F31188B6
:1043800001F03EFC47F610113046C0F60001FCF784
:10439000B7F90028ABD1206847F29861B0EB040868
:1043A000D8F1000050EB080040F6C876C0F60001D6
:1043B000C2F20006FCF7A4F9002898D1B06847F6CD
:1043C0008C11D0F1010038BF0020C0F60001FCF7CD
:1043D00097F900288BD103232B60804600F0C8FD9D
:1043E0004125814620272846FCF7E2F887F311880B
:1043F000A3680020013B8342A3600CDA40F6C8703A
:10440000C2F200003221FDF773FDB0F1FF3CDCF198
:10441000000050EB0C0088F3118847F61011C0F62D
:104420000001FCF76DF947F29861C0F60001002821
:104430007FF45DAF2068B0EB040EDEF1000050EBBE
:104440000E00FCF75DF947F68C11C0F6000100285C
:104450007FF44DAFB0680135D0F1010038BF0020C6
:10446000FCF74EF9EDB200287FF441AF462DBAD1EA
:1044700047F6A01047F2AC61C0F60000C0F600019C
:10448000FCF70EF900287FF432AF09F1FA0009F1C8
:10449000FC0180B289B2BDE8F843FEF721BD40F6C9
:1044A000C870C2F200004FF4FA71FDF721FDD0F19F
:1044B000010638BF002660E7AFF30080AFF300804D
:1044C00010B541F23034C2F20004012386B02360FB
:1044D000EFF311831BB9FCF7D3FFFCF711FC0223A8
:1044E0002360202383F31188EFF311831BB9FCF7BA
:1044F000C7FFFCF705FC002383F311880323236027
:10450000EFF3118313B9202383F31188EFF31183A1
:1045100013B9202383F31188002383F31188042324
:104520002360202383F31188EFF3118313B1002359
:1045300083F31188EFF3118313B1002383F3118800
:104540000522002304932260202383F31188049B17
:1045500001AC13B12046FCF74BFA43F2B1122046EE
:10456000C0F600020121002300F002FC002383F3C7
:1045700011880A2000F07CFC202383F3118800239B
:10458000049883F3118847F6A811D0F1010038BFD1
:104590000020C0F60001FCF7B3F806B010BD00BF64
:1045A000F8B541F2C023C2F200039B6941F23036F4
:1045B000996840F6501044F6315247F24063013991
:1045C000C2F200060124C0F60002C0F60003C2F2E7
:1045D0000000346001F09CF940F6D473C2F200038D
:1045E0001860202383F3118841F2C024C2F2000432
:1045F000A26940F6E873C2F20003536203201A6016
:10460000FCF7E6FBA36900225F6A82F3118840F69B
:10461000E875C2F20005286847F6BC11D0F1010028
:1046200038BF0020C0F60001FCF76AF800B1F8BD01
:10463000D7F1010047F2F00138BF0020C0F60001B9
:10464000FCF75EF80028F2D101F0DAFA02233360B9
:10465000202383F31188A3694FF08042546A4FF4FA
:104660007A715D6203202B6000F0D2FBA4B2064693
:10467000002383F3118804F57A7004F2EB3180B2E1
:1046800089B2FEF72DFC0028D1D1286847F6BC116D
:10469000D0F1010038BF0020C0F60001FCF730F86F
:1046A0000028C4D1B6F1FF33584247F2F001584117
:1046B000C0F60001BDE8F840FCF722B8AFF3008077
:1046C00008B5202383F3118840F66000C2F2000091
:1046D0000021FCF77DFCFCF783FA002383F31188AB
:1046E000322000F0C5FB202383F3118840F634000C
:1046F000C2F200000021FCF76BFCFCF771FA00230A
:1047000083F3118808BD00BFAFF30080AFF30080D2
:104710002DE9F04141F23033C2F2000301228AB0A8
:104720001A60202383F3118840F66004C2F200046B
:1047300041F2C0232168C2F200039A690AAF012541
:104740004FF0FF3047F8281D002301920295049096
:104750002760039383F31188202383F3118840F6A5
:10476000340341F2C022C2F20003C2F20002186810
:1047700092690AAE069204214FF0FF3546F8140DF7
:104780000022079109951E60089282F3118841F278
:1047900030350223C2F200052B6000F0E9FB41F244
:1047A000C023C2F200039B698046996840F650100E
:1047B00044F2C16247F240630139C0F60002C0F61C
:1047C0000003C2F2000001F0A3F840F6D473C2F275
:1047D0000003032218602A60FEF702FB08F1320092
:1047E00008F1340180B289B2FEF77AFB10B10AB049
:1047F000BDE8F081FEF774FA47F6F001D0F1010050
:1048000038BF0020C0F60001FBF77AFF0028EED188
:1048100001F0F6F940F6340840F6600004236946DA
:10482000C2F20000C2F200082B60FCF779F93146B1
:104830004046FCF775F9206847F28071041B60421E
:104840006041C0F60001FBF75BFF0028CFD1D8F82C
:10485000000047F28071B0EB080250425041C0F6B0
:104860000001FBF74DFFC2E7AFF30080AFF300801C
:1048700070B541F23035C2F20005012382B02B60E1
:10488000202383F3118840F63804C2F200046168E3
:10489000226823698A1AC3EBA200031F584247F615
:1048A000C8115841C0F60001FBF72AFF20B10023D0
:1048B00083F3118802B070BD80F3118802232B604E
:1048C000FFF746FA202383F3118861682268236981
:1048D0008A1AC3EBA200B0F1040CDCF1000047F22D
:1048E000387150EB0C00C0F60001FBF709FF0028FF
:1048F000DDD180F31188202383F31188206947F6E6
:10490000D411D0F1010038BF0020C0F60001FBF740
:10491000F7FE0028CBD180F31188202383F3118880
:104920002068A36847F6E011B0EB030EDEF100004B
:1049300050EB0E00C0F60001FBF7E2FE0028B6D1F6
:1049400080F31188202383F311882068E36847F6F9
:104950000421C61A70427041C0F60001FBF7D0FE78
:104960000028A4D180F3118803234FF6FF710020A3
:104970002B6000F04DFD47F62821821C14BF00205B
:10498000012041F23036C0F60001C2F20006FBF70A
:10499000B7FE00288ED14FF6FF7100F081FD47F67B
:1049A0002821831C14BF00200120C0F60001FBF762
:1049B000A7FE00287FF47EAF4FF6FF7101A800F03C
:1049C000B7FD47F62821821C14BF00200120C0F645
:1049D0000001FBF795FE00287FF46CAF04233360E1
:1049E0002075422630464FF6FF7100F011FD47F664
:1049F0001011D0F1010038BF0020C0F600010136CF
:104A0000FBF77EFE00287FF455AF452EEAD14FF626
:104A1000FF71412000F044FD47F61011D0F1010074
:104A200038BF0020C0F60001FBF76AFE00287FF4C3
:104A300041AF05232B60202383F31188616822682E
:104A400023698A1AB3EBA20F47F63C2114BF00205A
:104A50000120C0F60001FBF753FE00287FF427AFCA
:104A600080F31188202383F31188206947F64821B9
:104A7000031F58425841C0F60001FBF741FE0028D1
:104A80007FF415AF80F31188202383F31188E06849
:104A9000A36847F65421B0EB030CDCF1000050EBA7
:104AA0000C00C0F60001FBF72BFE00287FF4FFAEE0
:104AB00080F3118806232B6004264FF6FF7101A8AE
:104AC00000F036FD47F61011D0F1010038BF00208C
:104AD000C0F60001FBF714FE00287FF4EBAE9DF852
:104AE0000400FBF765FD013EE7D147F6540047F6A9
:104AF0006C21C0F60000C0F60001FBF7D1FD0028D4
:104B00007FF4D8AE07234FF6FF7146202B6000F0EC
:104B10007FFC47F61011D0F1010038BF002041F2B0
:104B20003035C0F60001C2F20005FBF7E9FD0028B0
:104B30007FF4C0AE4FF6FF7101A800F0F9FC47F614
:104B40001011D0F1010038BF0020C0F60001FBF7C2
:104B5000D7FD00287FF4AEAE08232B60202383F31B
:104B600011886168226823698A1AC3EBA200B0F138
:104B7000040EDEF1000047F2387150EB0E00C0F673
:104B80000001FBF7BDFD00287FF491AE80F3118892
:104B9000202383F31188206947F6D411D0F1010056
:104BA00038BF0020C0F60001FBF7AAFD00287FF403
:104BB0007EAE80F311882068A36847F6E011C61A1C
:104BC0007042704140F63804C0F60001C2F20004A1
:104BD000FBF796FD00287FF46DAE2068E36847F68A
:104BE0000421C51A68426841C0F60001FBF788FD40
:104BF00060E600BFAFF30080AFF30080AFF300804A
:104C0000704700BFAFF30080AFF30080AFF30080C8
:104C1000704700BFAFF30080AFF30080AFF30080B8
:104C200040F61003C2F200030022042159601A600A
:104C30009A607047AFF30080AFF30080AFF300805D
:104C40002DE9F04141F2C024C2F20004A36941F20F
:104C500030369D68C2F20006AF1C05F101089F6066
:104C6000404602233360FBF7E3FF421B504247F20A
:104C70009C015041C0F60001FBF742FD08B1BDE8C0
:104C8000F081A36947F2C0019868C0F600013B1AA1
:104C900058425841FBF734FD0028F0D1A36947F68C
:104CA0008021D86BC0F60001B8EB000CDCF10000ED
:104CB00050EB0C00FBF724FD0028E0D1EF1C032390
:104CC00038463360FBF7B4FFB8EB000EDEF10000AE
:104CD00047F29C0150EB0E00C0F60001FBF710FDFF
:104CE0000028CCD1A36947F2C0019868C0F6000142
:104CF0003A1A50425041FBF703FD0028BFD1A36987
:104D000047F6A821D86BC0F600013B1A584258411B
:104D1000FBF7F6FC0028B2D104233360202383F391
:104D20001188A36900229D60DD6382F31188A6E7E4
:104D300010B52023044683F3118840F6E873C2F2CD
:104D40000003186820B1002141621960FCF7D8F80F
:104D5000FBF746FF002383F311882078BDE810405D
:104D6000FBF726BCAFF30080AFF30080AFF3008009
:104D7000F0B441F2C025C2F200052E4656F81C4F91
:104D80004FF08047D7F824C0012998BF0221B442D0
:104D9000C26003611FFA8CF226D0EE8C921B8B1836
:104DA0009BB2934222891ADB93423EBF991989B282
:104DB0007963934205D924689B1A22899BB29A424F
:104DC000F9D36268046042601060606003812189E9
:104DD0004FF6FF72CB1A2381AA84F0BC7047246877
:104DE0009B1A9BB22289E4E701EB020C1FFA8CFCB0
:104DF00000260223EA84E86128620460446001819D
:104E0000C7F834C03E61FB60E7E700BFAFF3008046
:104E100030B54FF6FF73994287B0054617D041F27F
:104E2000C024C2F2000440F2B132A36901A8C0F666
:104E30000002FFF79DFF2846FBF7CAFF049B13B152
:104E400001A8FBF7D5FDA369586A07B030BDFBF791
:104E5000BFFF41F2C024C2F20004A369586A07B040
:104E600030BD00BFAFF30080AFF30080AFF3008030
:104E700008B50146202383F311880820FFF7C8FFF7
:104E8000002383F3118808BDAFF30080AFF30080E7
:104E900070B541F230340123C2F2000423604FF0B8
:104EA0008046756A6420ADB2FFF7E2FF05F1640049
:104EB00005F1670180B289B2FEF712F800B170BD4A
:104EC00002232360756A6420ADB2FFF7D1FF05F1BC
:104ED000640005F1670180B289B2FEF701F800288D
:104EE000EDD103232360756A6420ADB2FFF7C0FFE4
:104EF00005F1640005F1670180B289B2FDF7F0FFAA
:104F00000028DCD104232360756A4FF47A70ADB2B7
:104F1000FFF7AEFF05F57A7005F2EB3180B289B28A
:104F2000FDF7DEFF0028CAD105232360756A202320
:104F3000ADB205F16404A4B283F311884FF080434D
:104F4000596A611A89B211B10820FFF761FF002385
:104F500083F3118805F16701204689B2BDE87040EE
:104F6000FDF7BEBFAFF30080AFF30080AFF300806A
:104F700008B50120FFF77CFF202383F311884FF051
:104F80008043586A002383F3118880B208BD00BFB4
:104F9000F8B541F230370123C2F200073B60FFF75A
:104FA000E7FF002406464FF0804540F6EC70C2F261
:104FB0000000FCF7EDF840F6EC70C2F20000FCF7E0
:104FC00047F840F6EC70C2F20000FCF7E1F840F65A
:104FD000EC70C2F20000FCF73BF840F6EC70C2F255
:104FE0000000FCF7D5F840F6EC70C2F20000FCF7C8
:104FF0002FF840F6EC70C2F20000FCF7C9F840F65A
:10500000EC70C2F20000FCF723F86B6A01349B1BC2
:105010009BB2B3F57A7FC8D347F21C600223C0F677
:1050200000003B60FBF724FBA000FBF7F9FBBDE8A9
:10503000F84047F6C820C0F60000FBF7F9BA00BFF9
:10504000F8B541F230370123C2F200073B60FFF7A9
:105050008FFF002406464FF0804540F61010C2F244
:105060000000FBF7EDFE40F61010C2F20000FBF767
:105070008FFE40F61010C2F20000FBF7E1FE40F692
:105080001010C2F20000FBF783FE40F61010C2F2CF
:105090000000FBF7D5FE40F61010C2F20000FBF74F
:1050A00077FE40F61010C2F20000FBF7C9FE40F692
:1050B0001010C2F20000FBF76BFE6B6A01349B1B01
:1050C0009BB2B3F57A7FC8D347F21C600223C0F6C7
:1050D00000003B60FBF7CCFAA000FBF7A1FBBDE8AA
:1050E000F84047F6D820C0F60000FBF7A1BA00BF91
:1050F000F8B50546FFF73CFF002407464FF0804611
:1051000028460121FBF714FF736A0134DB1B9BB2B5
:10511000B3F57A7FF4D328460021FBF709FF204638
:10512000F8BD00BFAFF30080AFF30080AFF30080A5
:1051300010B4024671B141F2C023C2F200034468C8
:105140009B69042083E81400236053605DF8044BDE
:10515000FFF75EBE4FF0FF305DF8044B704700BFB5
:1051600070B5202304460E4683F3118803E0FFF751
:10517000DFFF00281BDBA56820463146002DF6D056
:10518000A2692169531CA0688B42A36100F1FF3022
:1051900028BFE368A060157828BFA361E3690BB15D
:1051A00020469847002383F31188284670BD85F375
:1051B000118870BDAFF30080AFF30080AFF30080C3
:1051C0000C30FFF7CDBF00BFAFF30080AFF300801E
:1051D0000C304FF6FF71FFF7C3BF00BFAFF3008085
:1051E0002DE9F04F984683B0044689461546C769B5
:1051F000202383F311884FF080435A6A08F1FF3B64
:10520000424492B2002601921FFA8BFBA3680BB3B3
:10521000A369A1685A1C0139A261A1601B7809F138
:10522000010A89F800302369A2699A4224BFE36821
:10523000A3610FB12046B847002383F31188013DD5
:1052400006F101061AD0202282F31188A368D14604
:10525000002BDDD14FF6FD72934513D84FF08042FD
:10526000516A019A511A89B2884505D32046FFF741
:105270005FFF0028CAD0002383F31188304603B0B3
:10528000BDE8F08F20464146FFF752FF0028BDD011
:10529000F1E700BFAFF30080AFF30080AFF3008011
:1052A0000C30FFF79DBF00BFAFF30080AFF300806D
:1052B0000C304FF6FF73FFF793BF00BFAFF30080D2
:1052C000F8B504460F461646202383F3118803E001
:1052D000FFF72EFF00281ADBA56820463146002D77
:1052E000F6D06369A1685A1C01396261A1601F7020
:1052F000236962699A4224BFE3686361E3690BB181
:1053000020469847002383F311880020F8BD85F3D9
:105310001188F8BDAFF30080AFF30080AFF30080D9
:105320003030FFF7CDBF00BFAFF30080AFF3008098
:1053300030304FF6FF72FFF7C3BF00BFAFF30080FE
:105340002DE9F04F984683B0044689461546C76953
:10535000202383F311884FF080435A6A08F1FF3B02
:105360004244002692B201921FFA8BFBB246A36818
:10537000FBB16369A1685A1C01396261A16099F8A7
:10538000002009F101091A70236962699A4224BF59
:10539000E36863610FB12046B8478AF31188013D85
:1053A00006F1010619D0202383F31188A368002B8E
:1053B000DFD14FF6FD72934513D84FF08042516A0A
:1053C000019A511A89B2884505D32046FFF7B0FEED
:1053D0000028CCD0002383F31188304603B0BDE809
:1053E000F08F20464146FFF7A3FE0028BFD0F1E72B
:1053F0003030FFF7A5BF00BFAFF30080AFF30080F0
:1054000030304FF6FF73FFF79BBF00BFAFF3008054
:105410002DE9F041202380460F4683F3118840F6A2
:105420003806C2F2000634460CE0D4F800E06268A8
:105430002569CEEB020CC5EBAC05002D13DCFFF7A4
:1054400077FE58B940F63803327DC2F20003394680
:1054500003F11800002AE8D06FF00100002383F365
:105460001188BDE8F0819868011D99609142C0F8EB
:10547000008028BFC3F808E0336906480133336170
:10548000FDF72EFAFBF7ACFB0020002383F3118815
:10549000BDE8F08158080020AFF30080AFF3008032
:1054A0002DE9F041202380460F4683F3118840F612
:1054B0003806C2F2000634460BE0256994E8044041
:1054C000C2EB0E0CC5EBAC05002D13DCFFF730FE74
:1054D00058B940F63803327DC2F20003394603F171
:1054E0001800002AE9D06FF00100002383F311882F
:1054F000BDE8F081D9680B480439914238BFAEF15C
:105500000401D960C1F80080336901333361FDF7CC
:10551000E7F9FBF765FB0020002383F31188BDE862
:10552000F08100BF58080020AFF30080AFF3008087
:10553000F8B507460D46202383F3118840F638045A
:10554000C2F20004264605E03269002A12DCFFF7A9
:10555000EFFD58B940F63803227DC2F20003294618
:1055600003F12000002AEFD06FF00100002383F345
:105570001188F8BDDA685968106804328A42DA6026
:1055800028BF1A68386028BFDA6023690548013BE4
:105590002361FDF7A5F9FBF723FB0020002383F32C
:1055A0001188F8BD50080020AFF30080AFF30080F1
:1055B0002DE9F04141F23035C2F20005012382B0FD
:1055C0002B60202383F3118840F63804C2F20004D4
:1055D0006168226823698A1AC3EBA200021F504245
:1055E00047F6C8115041C0F60001FBF789F828B111
:1055F000002383F3118802B0BDE8F08180F31188A5
:1056000002232B60202383F31188236801220026C4
:10561000BC482275A360E3602661FDF7D9FABA4859
:10562000FDF7D6FA86F31188202383F3118840F61C
:105630003804C2F200046168226823698A1AC3EB45
:10564000A200031F584247F238715841C0F60001CA
:10565000FBF756F80028CBD180F31188202383F381
:105660001188206947F6D411D0F1010038BF00201D
:10567000C0F60001FBF744F80028B9D180F3118887
:10568000202383F311882068A36847F6E011B0EB6C
:105690000308D8F1000050EB0800C0F60001FBF74A
:1056A0002FF80028A4D180F31188202383F31188D8
:1056B0002068E36847F60421B0EB030CDCF100003E
:1056C00050EB0C00C0F60001FBF71AF800288FD150
:1056D00080F3118803234FF000082B6084F81480B6
:1056E0004226202787F311883046FDF749FA88F3D0
:1056F000118847F61011D0F1010038BF0020C0F624
:1057000000010136FAF7FCFF00287FF474AF452E44
:10571000E8D1202383F311884120FDF709FA002303
:1057200083F3118847F61011D0F1010038BF002033
:10573000C0F60001FAF7E4FF00287FF45CAF042311
:105740002B60202383F311886168226823698A1AF9
:10575000B3EBA20F47F63C2114BF00200120C0F696
:105760000001FAF7CDFF00287FF442AF80F31188E3
:10577000202383F31188206947F64821B0F1040EF5
:10578000DEF1000050EB0E00C0F60001FAF7B8FFA2
:1057900000287FF42DAF80F31188202383F3118834
:1057A000E068A36847F65421C71A78427841C0F6EA
:1057B0000001FAF7A5FF00287FF41AAF80F31188E3
:1057C00005232B6004264FF02008002788F311885A
:1057D00001A8FDF785F987F3118847F61011D0F17C
:1057E000010038BF0020C0F60001FAF789FF002849
:1057F0007FF401AF9DF80400FAF7DAFE013EE5D12F
:1058000047F6540047F66C21C0F60000C0F60001D0
:10581000FAF746FF00287FF4EEAE06234FF6FF713D
:1058200046202B60FFF7F4FD47F61011D0F1010080
:1058300038BF002041F23035C0F60001C2F2000549
:10584000FAF75EFF00287FF4D6AE4FF6FF7101A88D
:10585000FFF76EFE47F61011D0F1010038BF0020AF
:10586000C0F60001FAF74CFF00287FF4C4AE07230E
:105870002B60202383F311886168226823698A1AC8
:10588000C3EBA200061F704247F238717041C0F6A8
:105890000001FAF735FF00287FF4AAAE80F31188E3
:1058A000202383F31188206947F6D411D0F1010039
:1058B00038BF0020C0F60001FAF722FF00287FF46D
:1058C00097AE80F311882068A36847F6E011C51AE7
:1058D0006842684140F63804C0F60001C2F2000494
:1058E000FAF70EFF00287FF486AE2068E36847F6DB
:1058F0000421C41A60426041C0F60001FAF700FFBB
:1059000079E600BF5008002058080020AFF300805F
:105910002DE9F84F0446202080F3118841F2C0267B
:10592000C2F20006D6F814B040F2652E47F6E82021
:10593000002504F58077C4F8DC20C0F6000E04F5DD
:10594000967204F5947C04F1DC0A4FF002094FF0E2
:105950000108C0F60000C4F80811C4F83C11C4F8EE
:105960001801C4F81C41C4F8E030C4F80CA1C4F814
:10597000FCE084F8209184F82281C4F81061C4F816
:1059800014B184F82151C4F83851C4F83451384660
:10599000CBF810702946C4F828C1C4F82C21C4F8EB
:1059A00030217761FBF7BCF985F311883846BDE8F3
:1059B000F88F00BFAFF30080AFF30080AFF300803B
:1059C00038B541F2C023C2F200039B6941F2303581
:1059D000996840F6501040F6E1620131C2F20005CC
:1059E0000124C0F600020023C2F200002C60FFF781
:1059F0008FFF40F6C87440F6D473C2F2000302224F
:105A0000C2F2000418602A60FDF7FAF8206847F235
:105A10009861B0EB040EDEF1000050EB0E00C0F612
:105A20000001FAF76DFE00B138BDA06847F68C1191
:105A3000D0F1010038BF0020C0F60001FAF760FE87
:105A40000028F1D103232B60FDF7DAF8206847F234
:105A50009861051B68426841C0F60001FAF750FEE4
:105A60000028E1D1A06847F68C11D0F1010038BFC1
:105A70000020C0F60001BDE83840FAF741BE00BF83
:105A800030B440F6380340F6B872C2F20003C2F2F6
:105A9000000203F1180402F1100503F120000021B7
:105AA0005D609C61DC611A60DA609A60186258621D
:105AB0001961197530BC7047AFF30080AFF30080F7
:105AC00030B440F6380340F6B872C2F20003C2F2B6
:105AD000000203F1180402F1100503F12000002177
