:020000040800F2
:100000000004002081010008C1120008C11200088C
:10001000C1120008C1120008C1120008C112000874
:10002000C1120008C1120008C1120008810F0008A7
:10003000C1120008C1120008C1120008C112000854
:10004000C1120008C1120008C1120008C112000844
:10005000C1120008C1120008C1120008C112000834
:10006000C1120008C1120008C1120008C112000824
:10007000C1120008C1120008C1120008C112000814
:10008000C1120008C1120008C1120008C112000804
:10009000C1120008C1120008C1120008C1120008F4
:1000A000C1120008610F0008C1120008410F0008CA
:1000B000710E0008210F0008C1120008C1120008CB
:1000C000C1120008C1120008C1120008C1120008C4
:1000D000C1120008911200087112000851120008A4
:1000E000C1120008C1120008C1120008C1120008A4
:1000F000C1120008C1120008C1120008C112000894
:10010000C1120008C1120008C1120008C112000883
:10011000C1120008C1120008C1120008C112000873
:10012000C1120008C1120008C1120008C112000863
:10013000C1120008C1120008C1120008C112000853
:10014000C1120008C1120008C1120008C112000843
:10015000C1120008C1120008C1120008C112000833
:10016000000000000000000000000000000000008F
:10017000000000000000000000000000000000007F
:1001800072B6254880F3098824484EF60851CEF20D
:1001900000010860022080F31488BFF36F8F01F024
:1001A000CFFD01F0EDFC1E481E491F4A91423CBFA5
:1001B00041F8040BFAE71D49174A91423CBF41F848
:1001C000040BFAE71A491B4A1B4B9A423EBF51F8EF
:1001D000040B42F8040BF8E700201849184A914232
:1001E0003CBF41F8040BFAE701F06AFD01F0A0FD05
:1001F000144C154DAC4203DA54F8041B8847F9E758
:1002000001F07EFF114C124DAC4203DA54F8041B8E
:100210008847F9E701F084BD0008002000000008CD
:100220005555555500000020000400200004002012
:100230007C330008000800206C08002070080020B3
:10024000EC0C0020800100088001000880010008FB
:10025000800100082DE9F04FC1F80CD0C3689D461D
:10026000BDE8F08F002383F311882846A0470020C3
:1002700001F0D6FC01F004FD00DFFEE781F0004153
:1002800002E000BF83F0004330B54FEA41044FEA7B
:10029000430594EA050F08BF90EA020F1FBF54EA16
:1002A000000C55EA020C7FEA645C7FEA655C00F0B2
:1002B000E2804FEA5454D4EB5555B8BF6D420CDD83
:1002C0002C4480EA020281EA030382EA000083EA06
:1002D000010180EA020281EA0303362D88BF30BDA6
:1002E00011F0004F4FEA01314FF4801C4CEA1131FC
:1002F00002D0404261EB410113F0004F4FEA03335B
:100300004CEA133302D0524263EB430394EA050FE5
:1003100000F0A780A4F10104D5F1200E0DDB02FA54
:100320000EFC22FA05F2801841F1000103FA0EF2E8
:10033000801843FA05F359410EE0A5F120050EF1AE
:10034000200E012A03FA0EFC28BF4CF0020C43FADF
:1003500005F3C01851EBE37101F0004507D54FF0EC
:10036000000EDCF1000C7EEB00006EEB0101B1F53C
:10037000801F1BD3B1F5001F0CD349085FEA300082
:100380004FEA3C0C04F101044FEA445212F5800F8D
:1003900080F09A80BCF1004F08BF5FEA500C50F12A
:1003A000000041EB045141EA050130BD5FEA4C0C0D
:1003B000404141EB010111F4801FA4F10104E9D196
:1003C00091F0000F04BF01460020B1FA81F308BF8D
:1003D0002033A3F10B03B3F120020CDA0C3208DD59
:1003E00002F1140CC2F10C0201FA0CF021FA02F134
:1003F0000CE002F11402D8BFC2F1200C01FA02F1A4
:1004000020FA0CFCDCBF41EA0C019040E41AA2BFC8
:1004100001EB0451294330BD6FEA04041F3C1CDA90
:100420000C340EDC04F11404C4F1200220FA04F0B0
:1004300001FA02F340EA030021FA04F345EA03015A
:1004400030BDC4F10C04C4F1200220FA02F001FA1C
:1004500004F340EA0300294630BD21FA04F029469E
:1004600030BD94F0000F83F4801306BF81F4801137
:100470000134013D4EE77FEA645C18BF7FEA655CAA
:1004800029D094EA050F08BF90EA020F05D054EA7C
:10049000000C04BF1946104630BD91EA030F1EBF81
:1004A0000021002030BD5FEA545C05D14000494185
:1004B00028BF41F0004130BD14F580043CBF01F578
:1004C000801130BD01F0004545F0FE4141F470015E
:1004D0004FF0000030BD7FEA645C1ABF1946104639
:1004E0007FEA655C1CBF0B46024650EA013406BF3A
:1004F00052EA033591EA030F41F4002130BD00BFF9
:1005000090F0000F04BF0021704730B54FF48064B5
:1005100004F132044FF000054FF0000150E700BF36
:1005200090F0000F04BF0021704730B54FF4806495
:1005300004F1320410F0004548BF40424FF0000182
:100540003EE700BF42004FEAE2014FEA31014FEAC5
:1005500002701FBF12F07F4393F07F4F81F0605114
:10056000704792F0000F14BF93F07F4F704730B583
:100570004FF4607401F0004521F0004120E700BF16
:1005800050EA010208BF704730B54FF000050AE09D
:1005900050EA010208BF704730B511F0004502D59E
:1005A000404261EB41014FF4806404F132045FEAA0
:1005B000915C3FF4DCAE4FF003025FEADC0C18BF45
:1005C00003325FEADC0C18BF033202EBDC02C2F13B
:1005D000200300FA03FC20FA02F001FA03FE40EACD
:1005E0000E0021FA02F11444C1E600BF70B54FF0CD
:1005F000FF0C4CF4E06C1CEA11541DBF1CEA1355AF
:1006000094EA0C0F95EA0C0F00F0DEF82C4481EA16
:10061000030621EA4C5123EA4C5350EA013518BF36
:1006200052EA033541F4801143F4801338D0A0FB23
:1006300002CE4FF00005E1FB02E506F00042E0FBD0
:1006400003E54FF00006E1FB03569CF0000F18BFD6
:100650004EF0010EA4F1FF04B6F5007F64F540747E
:1006600004D25FEA4E0E6D4146EB060642EAC62111
:1006700041EA55514FEAC52040EA5E504FEACE2E7E
:10068000B4F1FD0C88BFBCF5E06F1ED8BEF1004F81
:1006900008BF5FEA500E50F1000041EB045170BDFD
:1006A00006F0004646EA010140EA020081EA030141
:1006B000B4EB5C04C2BFD4EB0C0541EA045170BD3D
:1006C00041F480114FF0000E013C00F3AB8014F1B7
:1006D000360FDEBF002001F0004170BDC4F1000400
:1006E000203C35DA0C341BDC04F11404C4F1200581
:1006F00000FA05F320FA04F001FA05F240EA0200DC
:1007000001F0004221F0004110EBD37021FA04F611
:1007100042EB06015EEA430E08BF20EAD37070BDCB
:10072000C4F10C04C4F1200500FA04F320FA05F02A
:1007300001FA04F240EA020001F0004110EBD3702C
:1007400041F100015EEA430E08BF20EAD37070BD9C
:10075000C4F1200500FA05F24EEA020E20FA04F375
:1007600001FA05F243EA020321FA04F001F0004124
:1007700021FA04F220EA020000EBD3705EEA430E95
:1007800008BF20EAD37070BD94F0000F0FD101F0C4
:100790000046400041EB010111F4801F08BF013CFD
:1007A000F7D041EA060195F0000F18BF704703F03B
:1007B0000046520043EB030313F4801F08BF013DC2
:1007C000F7D043EA0603704794EA0C0F0CEA13557E
:1007D00018BF95EA0C0F0CD050EA410618BF52EA38
:1007E0004306D1D181EA030101F000414FF000003E
:1007F00070BD50EA410606BF1046194652EA43064C
:1008000019D094EA0C0F02D150EA013613D195EABF
:100810000C0F05D152EA03361CBF104619460AD107
:1008200081EA030101F0004141F0FE4141F4700111
:100830004FF0000070BD41F0FE4141F4780170BD01
:1008400070B54FF0FF0C4CF4E06C1CEA11541DBF66
:100850001CEA135594EA0C0F95EA0C0F00F0A7F868
:10086000A4EB050481EA030E52EA03354FEA013195
:1008700000F088804FEA03334FF0805545EA1313A8
:1008800043EA12634FEA022245EA111545EA106570
:100890004FEA00260EF000419D4208BF964244F107
:1008A000FD0404F5407402D25B084FEA3202B61A26
:1008B00065EB03055B084FEA32024FF480104FF4FA
:1008C000002CB6EB020E75EB030E22BFB61A75466E
:1008D00040EA0C005B084FEA3202B6EB020E75EB01
:1008E000030E22BFB61A754640EA5C005B084FEA69
:1008F0003202B6EB020E75EB030E22BFB61A754636
:1009000040EA9C005B084FEA3202B6EB020E75EB40
:10091000030E22BFB61A754640EADC0055EA060E01
:1009200018D04FEA051545EA16754FEA06164FEA44
:10093000C30343EA52734FEAC2025FEA1C1CC0D1F0
:1009400011F4801F0BD141EA00014FF000004FF07D
:10095000004CB6E711F4801F04BF01430020B4F13E
:10096000FD0C88BFBCF5E06F3FF6AFAEB5EB030CF6
:1009700004BFB6EB020C5FEA500C50F1000041EBF3
:10098000045170BD0EF0004E4EEA113114EB5C04C0
:10099000C2BFD4EB0C0541EA045170BD41F4801193
:1009A0004FF0000E013C90E645EA060E8DE60CEA9B
:1009B000135594EA0C0F08BF95EA0C0F3FF43BAFB8
:1009C00094EA0C0F0AD150EA01347FF434AF95EA6F
:1009D0000C0F7FF425AF104619462CE795EA0C0F53
:1009E00006D152EA03353FF4FDAE1046194622E720
:1009F00050EA410618BF52EA43067FF4C5AE50EAFA
:100A000041047FF40DAF52EA43057FF4EBAE12E7E9
:100A10004FEA410212F5001215D211D56FF4787326
:100A2000B3EB625212D94FEAC12343F0004343EAC9
:100A3000505311F0004F23FA02F018BF40427047A4
:100A40004FF00000704750EA013005D111F000402E
:100A500008BF6FF0004070474FF00000704700BFC4
:100A60004FEA4102B2F1E04324BFB3F5001CDCF1D0
:100A7000FE5C0DD901F0004C4FEAC0024CEA507008
:100A8000B2F1004F40EB830008BF20F00100704737
:100A900011F0804F21D113F13872BCBF01F000403A
:100AA000704741F480114FEA5252C2F11802C2F16C
:100AB000200C10FA0CF320FA02F018BF40F00100ED
:100AC0004FEAC1234FEAD32303FA0CFC40EA0C009F
:100AD00023FA02F34FEA4303CCE77FEA625307D1DC
:100AE00050EA01331EBF4FF0FE4040F44000704713
:100AF00001F0004040F0FE4040F40000704700BFAD
:100B00004FF0FF3C06E000BF4FF0010C02E000BFD9
:100B10004FF0010C4DF804CD4FEA40024FEA41037B
:100B20007FEA226C18BF7FEA236C11D001B052EA31
:100B3000530C18BF90EA010F58BFB2EB030088BFF7
:100B4000C81738BF6FEAE17018BF40F00100704766
:100B50007FEA226C02D15FEA402C05D17FEA236C48
:100B6000E4D15FEA412CE1D05DF8040B704700BF8F
:100B7000844608466146FFE70FB5FFF7C9FF002826
:100B800048BF10F1000F0FBD4DF808EDFFF7F4FF5F
:100B90000CBF012000205DF808FB00BF4DF808EDF8
:100BA000FFF7EAFF34BF012000205DF808FB00BF1B
:100BB0004DF808EDFFF7E0FF94BF012000205DF83D
:100BC00008FB00BF4DF808EDFFF7D2FF94BF0120EE
:100BD00000205DF808FB00BF4DF808EDFFF7C8FFE7
:100BE00034BF012000205DF808FB00BF4FEA40023F
:100BF000B2F1FE4F0FD34FF09E03B3EB12620DD94B
:100C00004FEA002343F0004310F0004F23FA02F0B4
:100C100018BF404270474FF00000704712F1610F5B
:100C200001D1420205D110F0004008BF6FF0004032
:100C300070474FF000007047000000000000000007
:100C400010B4202383F3118890F82030072B0ED89E
:100C5000DFE803F02B0D0D2708040D08436A9A689E
:100C600001329A6090E80C001A60026853604FF0FD
:100C7000FF34002240F60C238168446280F8202073
:100C8000C2F200031B689A688A42FBD25A680021AC
:100C9000036042601060586081F311885DF8044B76
:100CA0007047436A00221A60E1E7002383F311884A
:100CB0005DF8044B704700BFAFF30080AFF30080D6
:100CC0004FF40063C4F201034FF480625A6170472D
:100CD0004FF40063C4F201034FF480621A6170475D
:100CE0004FF40063C4F201034FF480725A617047FD
:100CF0004FF40063C4F201034FF480721A6170472D
:100D0000F0B4002B08BF0B4600F10B0700F10A05F9
:100D1000B1FBF2F602FB161101F13004392CC8BF09
:100D200001F13704E4B2B3FBF2F331462E4605F885
:100D30000149002BECD1BA1B3346024401E013F801
:100D4000014F00F8014B9042F9D1F0BC704700BF51
:100D50004FF49043C4F20003DA6842F08002DA6094
:100D6000704700BFAFF30080AFF30080AFF30080A7
:100D70004FF48843C4F20003DA6842F08002DA607C
:100D8000704700BFAFF30080AFF30080AFF3008087
:100D90004FF46053C4F20103DA6842F08002DA6073
:100DA000704700BFAFF30080AFF30080AFF3008067
:100DB00038B5836905461A69DC681440E2B2D2434B
:100DC0001A61A30703D543681B6903B198476007FD
:100DD00004D56B689B690BB128469847210704D559
:100DE0006B681B6A0BB128469847E20604D56B680E
:100DF0009B6A0BB128469847E30704D56B689B684C
:100E00000BB12846984738BDAFF30080AFF30080A0
:100E1000202383F311884FF46D43CEF200035B6807
:100E200013F4006302D183F311887047EFF3098252
:100E30004FF0807342F8043CA2F1200383F3098849
:100E400040F60C23C2F2000319689B6989689B680D
:100E500099428BBF40F2752340F27823C0F600031D
:100E6000C0F6000342F8083C704700BFAFF30080B3
:100E70004FF080431A692DE9F041920703D4BDE891
:100E8000F041FFF7C5BF00221A61202383F31188C8
:100E900040F60C244FF08045C2F200046A6AE08CF0
:100EA000E36992B2161A1989B6B28E4204F11C0790
:100EB00024BF4FF0000820261CD31A680144BA4210
:100EC000E184D9685760E261C3F80C8008BFC5F8B7
:100ED0000C8088F311881869884786F311886A6A3C
:100EE000E08CE36992B2C0EB020C19891FFA8CFC0A
:100EF0006145E2D9BB420AD00144891A89B201296D
:100F000098BF02210A4492B24FF080435A630023F3
:100F100083F31188BDE8F041FFF77ABFAFF300809B
:100F200008B540F69820C2F20000FFF741FFBDE887
:100F30000840FFF76DBF00BFAFF30080AFF3008044
:100F400008B540F67C20C2F20000FFF731FFBDE893
:100F50000840FFF75DBF00BFAFF30080AFF3008034
:100F600008B540F67C20C2F20000FFF721FFBDE883
:100F70000840FFF74DBF00BFAFF30080AFF3008024
:100F8000EFF30983203383F30988002383F3118867
:100F9000704700BFAFF30080AFF30080AFF3008075
:100FA00030B4202383F3118840F6B423C2F2000347
:100FB0001D684C1E2A4422444942044402EA0100AE
:100FC00021405A680144914207D88D4205D81960E2
:100FD000002383F3118830BC70470020002383F383
:100FE000118830BC704700BFAFF30080AFF30080C2
:100FF000002240F60C23816810B4C2F200030446BC
:1010000080F820201B689A688A42FBD25A682046E2
:101010002360626014605C605DF8044B704700BF41
:10102000F8B504680746A0420D4620D0002602E02D
:101030002468A7421BD0E3682B43E36015B1226903
:101040001342F5D06068A268416B90F820300A43E3
:101050000A2B42630CD00B2BEAD1436A1A4093420D
:10106000E6D14662FFF7C4FF2468A742E3D1F8BD8A
:10107000436A1A42DCD04662FFF7BAFFF4E700BFCA
:101080002DE9F04F466F83B0D6F80CA033680546C3
:10109000DA059CB200F18980202383F3118814F0D3
:1010A0002F0F50D005F1040805F10C074FF000098F
:1010B00009E0A406736895F878B01FD43468A4B228
:1010C00014F02F0F3FD02307F3D014F0080F14BFF4
:1010D00080210021E00748BF41F02001A20748BF5E
:1010E00041F04001630748BF41F480714046FFF77B
:1010F00097FFA406736895F878B0DFD56A69002A6F
:1011000040D02A6A696A8A4246D068690BEA0303BA
:10111000511C01302962686113702A6AEB699A4296
:1011200001D3AB692B62EB689F42C7D01A6818469F
:10113000EA605760C3F82490FFF75AFF3468A4B2FE
:1011400014F02F0FBFD1002383F311881AF0800F02
:1011500001D0200638D4610611D5202383F31188ED
:101160006A6CAB6C9A4255D04FF6BF730AEA030320
:101170006FF04002F3600023326083F3118803B004
:10118000BDE8F08F042140460193FFF749FF2A6A2A
:10119000696A019B8A42B8D169690029B5D0404685
:1011A0004FF48061FFF73CFF88E7202383F3118829
:1011B0004FF400710430FFF733FF6FF48073336036
:1011C000002383F3118867E7202383F31188AB6C36
:1011D0006A6C9A4226D0A86B296C5A1C0130A8630D
:1011E000AA648A421F7801D3EB6BAB642B6B05F1C9
:1011F00030029A4209D019684FF0000E2963184650
:101200004A60C3F824E0FFF7F3FE7760002383F31E
:101210001188A0E7AB6B002BA6D0281D1021FFF78B
:10122000FFFEA1E7AA6B002AD5D0281D0821FFF7F1
:10123000F7FE4FF63F730AEA030343F04003F360FF
:10124000E4E700BFAFF30080AFF30080AFF30080AE
:1012500008B540F66C10C2F20000FFF711FFBDE8C0
:101260000840FFF7D5BD00BFAFF30080AFF30080AB
:1012700008B540F6F000C2F20000FFF701FFBDE83C
:101280000840FFF7C5BD00BFAFF30080AFF300809B
:1012900008B540F67400C2F20000FFF7F1FEBDE8A9
:1012A0000840FFF7B5BD00BFAFF30080AFF300808B
:1012B000FEE700BFAFF30080AFF30080AFF3008024
:1012C000FEE700BFAFF30080AFF30080AFF3008014
:1012D00040F60C23C2F2000330B41A68996914680E
:1012E000012581F82000636082F820501C601046C0
:1012F00030BC9A61FEF7AEBFAFF30080AFF3008061
:10130000F0B54FF6FF73994287B0074660D040F6BC
:101310000C24C2F2000425464FF0804055F81C3FD3
:10132000D0F824C040F64142A669C0F60002012967
:1013300098BF0221AB4205961FFA8CFC049275D02F
:10134000B4F826E0CEEB0C068A1992B2B2421989A3
:1013500039DB8A423EBF02EB0E06B6B246638A42D2
:1013600005D91B68521A198992B29142F9D359686A
:1013700001AE029101930E605E60ADF80C201889F9
:101380004FF6FF71821A1A81A1843846FFF7A0FF39
:10139000049BA3B1E26940F60C23B242C2F20003FF
:1013A00020D0029A019B00211360019BAB425A603E
:1013B000049104D0BDF80C101A890A441A81A3695B
:1013C000586A07B0F0BD1B68521A92B21989C6E775
:1013D000FFF77EFF40F60C24C2F20004A369586AAE
:1013E00007B0F0BD019A0021AA42DA6108BF4FF0B0
:1013F00080435560049108BFD960E0D04FF0804130
:10140000486ADD8CBDF80C60138980B2451B3344FB
:101410009BB2ADB2AB421381D1D95B1B9BB2012B06
:1014200098BF022303449BB24B63C8E701EB0C0E49
:1014300001AE1FFA8EFE00220223A4F826C00195F9
:101440000295ADF80C10E6612662C0F834E0026146
:10145000C3609AE7AFF30080AFF30080AFF3008082
:1014600010B4024671B140F60C23C2F20003446886
:101470009B69042083E81400236053605DF8044BEB
:10148000FFF73EBF4FF0FF305DF8044B704700BFE1
:1014900070B5202304460E4683F3118803E0FFF75E
:1014A000DFFF00281BDBA56820463146002DF6D063
:1014B000A2692169531CA0688B42A36100F1FF302F
:1014C00028BFE368A060157828BFA361E3690BB16A
:1014D00020469847002383F31188284670BD85F382
:1014E000118870BDAFF30080AFF30080AFF30080D0
:1014F0000C30FFF7CDBF00BFAFF30080AFF300802B
:101500000C304FF6FF71FFF7C3BF00BFAFF3008091
:101510002DE9F04F984683B0044689461546C769C1
:10152000202383F311884FF080435A6A08F1FF3B70
:10153000424492B2002601921FFA8BFBA3680BB3C0
:10154000A369A1685A1C0139A261A1601B7809F145
:10155000010A89F800302369A2699A4224BFE3682E
:10156000A3610FB12046B847002383F31188013DE2
:1015700006F101061AD0202282F31188A368D14611
:10158000002BDDD14FF6FD72934513D84FF080420A
:10159000516A019A511A89B2884505D32046FFF74E
:1015A0005FFF0028CAD0002383F31188304603B0C0
:1015B000BDE8F08F20464146FFF752FF0028BDD01E
:1015C000F1E700BFAFF30080AFF30080AFF300801E
:1015D0000C30FFF79DBF00BFAFF30080AFF300807A
:1015E0000C304FF6FF73FFF793BF00BFAFF30080DF
:1015F000F8B504460F461646202383F3118803E00E
:10160000FFF72EFF00281ADBA56820463146002D83
:10161000F6D06369A1685A1C01396261A1601F702C
:10162000236962699A4224BFE3686361E3690BB18D
:1016300020469847002383F311880020F8BD85F3E6
:101640001188F8BDAFF30080AFF30080AFF30080E6
:101650003030FFF7CDBF00BFAFF30080AFF30080A5
:1016600030304FF6FF72FFF7C3BF00BFAFF300800B
:101670002DE9F04F984683B0044689461546C76960
:10168000202383F311884FF080435A6A08F1FF3B0F
:101690004244002692B201921FFA8BFBB246A36825
:1016A000FBB16369A1685A1C01396261A16099F8B4
:1016B000002009F101091A70236962699A4224BF66
:1016C000E36863610FB12046B8478AF31188013D92
:1016D00006F1010619D0202383F31188A368002B9B
:1016E000DFD14FF6FD72934513D84FF08042516A17
:1016F000019A511A89B2884505D32046FFF7B0FEFA
:101700000028CCD0002383F31188304603B0BDE815
:10171000F08F20464146FFF7A3FE0028BFD0F1E737
:101720003030FFF7A5BF00BFAFF30080AFF30080FC
:1017300030304FF6FF73FFF79BBF00BFAFF3008061
:101740000EB42DE9F04F94B00DF1380CCDF80CC06B
:101750000DF1390CCDF808C00398DDF808C01EABB8
:10176000C0EB0C0CCDF824C043F2103CC0F6000CCA
:10177000632043F2E42B40F6F009CDF820C04FF08F
:10178000000C0D939A46C0F6000BC2F200090590BA
:10179000CDF810C006460BF10104BEB1252E1BD0BA
:1017A000DDF810C0D9F8003040F6F00031460CF1F9
:1017B000010C9B68C2F20000CDF810C098479BF85E
:1017C0000160A3460BF10104002EE7D1049814B088
:1017D000BDE8F04F03B070479BF801202D2A03BFEE
:1017E0009BF802200BF1020401270027302A04BFD6
:1017F00062780134A3460CBF30252025002409E07F
:101800009AF800300AF1040A04EB84049BF80020E3
:1018100003EB4404A2F13003DBB2092B0BF1010B03
:10182000F2D92A2AECD02E2A4FF000034ED002F033
:10183000DF014C2959D19BF80060012026B101201D
:1018400032469BF801608344A2F14401342900F23E
:101850005C81DFE811F0BD005A015A015A015A01BA
:10186000BD005A015A015A015A015A01BB005A01DE
:101870005A015A015A015A0154005A015A01580199
:101880005A015A015A015A015A015A015A015A0180
:101890005A015A014B01BD005A01F4005A015A0184
:1018A000BD005A015A015A015A015A01BB005A019E
:1018B0005A015A01CD005A0154005A015A015801E7
:1018C0009AF800100AF1040A01EB40031BF8012BFF
:1018D00003EB8300A2F13001C9B20929F4D92A2A05
:1018E000EED002F0DF014C29A5D0A2F14100C0B238
:1018F00019288CBF002001209BF80060A4E70A2271
:10190000DAF800100EA80AF1040A0023FFF7F8F92C
:10191000DDF80CC00EABCCEB0000421E0692059326
:10192000241A24EAE474FFB96442ECB1DDF814C06F
:1019300040F6F0079CF800102D2900F0F080C2F26C
:101940000007A0463B6840F6F0009B68C2F200002A
:101950002946984718F10108F4D1DDF810C0C4EB0E
:101960000C0CCDF810C04446069A002A19DB059BE2
:101970001F4603F1FF381744D9F8003018F8011F4B
:1019800040F6F0009B68C2F200009847B845F3D1DA
:10199000DDF810C00CF10103DDF818C09C44CDF84F
:1019A00010C0002C3FF4F7AE2746D9F8003040F6BF
:1019B000F0009B68C2F2000029469847013FF4D12D
:1019C000DDF810C0A444CDF810C0E4E6082297E783
:1019D000DAF800100A220029B8BF2D230AF1040A00
:1019E000BDBF49428DF838300DF139000EA88CE7A3
:1019F000DAF8000043F2FC22C0F60002002808BF1B
:101A000010460590007847F6FF720AF1040A002B91
:101A100008BF1346002800F0A780059A134402E08F
:101A2000934200F09380517801320029F8D1059B50
:101A30002025D01A00F1FF3CCDF818C070E70AF15C
:101A4000070A2AF0070ADAE900010193FFF708F80C
:101A500000218046FFF7A2F80AF1080A019B0EAAAE
:101A6000002879D1DDF820C0013B082B28BF0823CE
:101A70005CF82330404605930192FFF7B7F8019ACE
:101A800006900699104600230A22FFF739F92E2303
:101A900084460CF8013B4046CDF804C0FEF752FDE9
:101AA000CDE90A010698FEF73BFD02460B46DDE94B
:101AB0000A01FEF7E7FBCDE906010598FEF720FDD8
:101AC00002460B46DDE90601FEF790FDFEF7A0FF9A
:101AD0004CF6CD4301460598CCF6CC43A3FB00035E
:101AE000DDF804C0DB0860460A220FE7DAF80030B0
:101AF00009988DF83830421E0EAB0AF1040A06929E
:101B0000202505930CE71022FAE609988DF8382075
:101B100000F1FF3C0EAACDF818C0059200E7302D69
:101B20007FF40DAFD9F80030C2F2000738469B6849
:101B30009847059ADDF810C001320592069A0CF11B
:101B4000010C013ACDF810C00692FAE6059A20255C
:101B5000981A431E0693E3E62D228DF8382008F1EB
:101B600000480DF139027DE74FF0FF330693202541
:101B7000D6E600BFAFF30080AFF30080AFF3008084
:101B80004FF48053C4F202031A68194642F001026E
:101B90001A600A684FF480539007C4F20203F8D524
:101BA0001968002201F0F901196019465A604A6863
:101BB0004FF4805312F00C0FC4F20203F7D11A68ED
:101BC000194642F480321A600A684FF48053920337
:101BD000C4F20203F8D55A68194642F480325A60BA
:101BE0001A6842F080721A600A684FF480539001BC
:101BF000C4F20203F8D54FF40052C4F202021021DD
:101C00004FF480305860116059681A4641F0020163
:101C10005960536803F00C03082BFAD1704700BFDA
:101C200038B50246202383F3118840F60C23C2F214
:101C300000039C69A06A04F12805A842626206D0EC
:101C40000368A362FFF7D4F9A06AA842F8D194F818
:101C500022304BB994F821309D0701BF2269636996
:101C60001A61226908BF53610F20BDE83840FFF7B1
:101C70002FBB00BFAFF30080AFF30080AFF3008055
:101C800040F60C22C2F20002106870B40368956935
:101C900001260021AC6813605A6080F820609061D2
:101CA00085F8201000E01B689A68A242FBD85A68A9
:101CB00029462B606A6015605D6070BCFEF7CABA89
:101CC000F0B4134E002506F17007A6F110011AC9F1
:101CD000A3420DD204391A4651F8040F42F8040BFE
:101CE000A242F9D3DA43144424F003040434234415
:101CF00056F8042C934203D243F8045B9342FBD37F
:101D0000BE4206F1100301D21E46DEE7F0BC70476A
:101D100060320008AFF30080AFF30080AFF30080C3
:101D2000FEE700BFAFF30080AFF30080AFF30080A9
:101D3000704700BFAFF30080AFF30080AFF30080C7
:101D4000704700BFAFF30080AFF30080AFF30080B7
:101D5000F0B4202383F3118802784B68012A416094
:101D6000836059D0836900221A605A639A63DA63E8
:101D70001A645A6246690D68CA688468CF6AB6FBFD
:101D8000F5F502F00F02013D013C012A9D62DC6283
:101D90005F603FD0022A3BD142F001024C6904F05F
:101DA0000F04012C31D0022C2DD0CC6904F00F048B
:101DB000012C25D0022C21D04C6A04F00F04012CF8
:101DC00003D0022C03D142F4005242F480520F6B34
:101DD0004FF0010C002127F0FF074FF40046852546
:101DE00002241A62C3F814C01961DF605E641D60CA
:101DF000C160047081F31188F0BC704742F4007236
:101E000042F48072D8E742F0200242F01002CCE7A0
:101E10000022C3E70022BFE740F67C23C2F20003A2
:101E200098420CD040F69823C2F2000398422ED07C
:101E3000836946F668029A614168DA619AE74FF46D
:101E40008052C4F2020291694FF4614341F400618F
:101E50009161D4684FF45851CEF2000344F4006C01
:101E600070254FF000764FF000640027C0F26E112D
:101E7000C2F80CC0D76083F81953C3F880611E60A4
:101E800083F81B53C3F880411C604161D0E74FF4D5
:101E90008053C4F20203D9694FF4614241F0020158
:101EA000D9611F694FF45851CEF200024FF000542F
:101EB00047F0020700267025C0F26E111F611E61F7
:101EC00082F81D53C2F8804114604161B0E700BF41
:101ED00008B50146202383F311880820FFF710FA84
:101EE000002383F3118808BDAFF30080AFF30080B7
:101EF00008B540F60C23C2F200039A6943F204339A
:101F0000C0F60003936140F6F00043F2E421C0F60E
:101F10000001C2F20000FFF713FC4FF47A70FFF7E4
:101F2000D7FFF0E7AFF30080AFF30080AFF300809E
:101F3000F0B440F60C27C2F20007D7F818C0856845
:101F4000DCF808400023A542064643620DD880F81D
:101F500020303B461B689A689542FBD95A6833602B
:101F6000726016605E60F0BC70478CF820303B46B3
:101F70001B689A689442FBD95A680124CCF8003057
:101F8000CCF80420C2F800C0C3F804C086F8204092
:101F90003046BE616146F0BCFEF75CB9AFF300802D
:101FA0002DE9F00343F234330446C0F6000344F84D
:101FB000043B002700F1640300F1540200F10C0619
:101FC00000F130054FF001094FF0100800F1740CDA
:101FD0004761446080F808908762C0F83880C66026
:101FE000066105634563C062C1640065C0F840C016
:101FF000826142620262C361C36383644364BDE879
:10200000F0037047AFF30080AFF30080AFF30080C0
:10201000202383F31188C368826943F00103C360FE
:102020000023516383F31188704700BFAFF3008032
:10203000202383F311888369DA6891075FBF42F038
:1020400002026FF00201DA601961002383F3118844
:10205000704700BFAFF30080AFF30080AFF30080A4
:10206000202383F311888369DA68D0075FBF42F0C9
:102070000102DA601A6902F0010258BF1A610023F6
:1020800083F31188704700BFAFF30080AFF3008087
:10209000032AF0B408BF016102D0042A08BF4161DD
:1020A00043F2D023C0F600039F5C00231C461A466F
:1020B0001D46082611F0800F4FEA02124FEA031363
:1020C0004FEA05154FEA04140CBF42F00F023B43E0
:1020D00011F4004F0CBF45F00F053C43013E4FEAA1
:1020E0004101E7D141680D402C4344600168F0BCD8
:1020F0000A40134303607047AFF30080AFF30080E2
:102100004FF480550024C4F202054FF0FF362B69CE
:102110002DE980482E612C61EB68EE60EC60EA6985
:102120004FF4E04342F08052EA61EA69C4F20003EE
:1021300042F00062EA611A688BB040F6740B42F418
:102140008072CDF80CB01A60AB694FF4006748F2AA
:10215000B84B40F67400C4F20107C2F2000043F02D
:102160007D03C8F6880B039043F2443CAB614FF407
:10217000406EFE6048F68802C7F804B040F6982B1F
:10218000C2F2000BC4F2010EC4F2434CCBF2B342D4
:10219000C7F800C04FF48051CDF818B048F24B4A50
:1021A000CEF80C6044F68438CEF804204FF0883224
:1021B000CEF80020C4F20101C8F6880ACBF2B34879
:1021C0006FF4407E4FF4A05048F64409C1F80CE08B
:1021D000C4F20100C1F804A0C8F68809C1F8008063
:1021E0004FF4C05340F67C274FF4305C4FF4806EC0
:1021F00040F691514FF00108C660C2F200074260FC
:10220000C4F20103C4F2010CC4F2000EC0F8009045
:10221000C0F6000103984FF0040940F6F00ADE60B2
:10222000C2F2000A5A601A60C7F818C0CBF818E06A
:1022300087F810908BF810907C60FC6087F8008025
:102240008BF80080CBF80440CBF80C40FFF7A8FED9
:10225000039A4FF4605340F67151C4F201035046A3
:10226000C0F6000140F66C195367C2F20009FFF78F
:1022700097FE4FF4884340F65151C4F2000348469C
:10228000C0F60001CAF87430FFF78AFEEA694FF41D
:10229000904342EA0802C4F200034FF40051C9F827
:1022A0007430CEF20401EA614D6840F60C2345F427
:1022B00000654D604FF0804145F6BF558D6240F698
:1022C000E8124FF6FF754FF4614AC2F20003CD6287
:1022D000C2F200028C61CEF2000A4C638025CC6011
:1022E00040F6A1794C6040F6B420C1F8148040F665
:1022F000F04CC1F8008042F2000E4FF080518AF895
:102300001C53C0F60009CAF88011C2F20000CAF8D6
:102310000010C2F2000C02F1100A03F11C019E84AD
:10232000C2F2000E4FF46D46CEF2000680E8005077
:102330009C60DC845D6383F84D409460D46094615C
:10234000C2F80090C2F810A0C2F814A0D9611962B6
:102350001B605B609D661C6683F84E8083F84C8032
:10236000F0684FF6FF014FF44072014043F25435DC
:10237000C0F2FA5203F12C0003F1580E03F1540C91
:102380000A43C0F600054EF6F05118615861986195
:102390005C66DB631B649C645D64C3F854C0C3F873
:1023A00058E0C3F85CE0CEF20001F260CA684FF476
:1023B000805342F08072CA60CEF200031868102188
:1023C00040EA080020221860F17786F8222084F382
:1023D000118862B6202383F3118840F60C24C2F2E0
:1023E000000440F6104341F2B12EC2F20003D4F8CB
:1023F00014C00121C0F6000E43F26C3040F2652695
:1024000003F190020025C3F86CE0C3F89810C3F8FC
:10241000CC1083F8B21003F16C0903F1BC0103F195
:10242000B80E4FF00208C0F60000C0F60006C3F870
:10243000A800C3F8A4C0C3F8AC30C3F8A040C3F8E8
:102440009C9083F8B0801D6783F8B150C3F8C850E2
:10245000C3F8C450C3F88C601046CCF81020C3F801
:10246000B8E0C3F8BC10C3F8C0106261FFF760FDAC
:1024700085F311884FF40060C4F2010001210222AB
:10248000FFF706FE02214FF400600A46C4F2010085
:10249000FFF7FEFD4FF40060C4F2010004210622A4
:1024A000FFF7F6FD4FF40060C4F201000821062298
:1024B000FFF7EEFD4FF40060C4F201001021062288
:1024C000FFF7E6FD4FF40060C4F201002021042272
:1024D000FFF7DEFD4FF40060C4F20100402104224A
:1024E000FFF7D6FD4FF40060C4F201008021042202
:1024F000FFF7CEFD4FF40060C4F201004FF480718D
:102500000622FFF7C5FD4FF40060C4F201004FF44E
:1025100000710622FFF7BCFD4FF40060C4F2010019
:102520004FF480610622FFF7B3FD4FF40060C4F260
:1025300001004FF400610622FFF7AAFD4FF440604E
:10254000C4F201004FF400610622FFF7A1FD4FF431
:102550004060C4F201004FF400410622FFF798FDED
:102560004FF44060C4F201004FF480610622FFF78F
:102570008FFD4FF440600622C4F201004FF4804109
:10258000FFF786FD40F67C2040F63401C2F20001E0
:10259000C2F20000FFF7DCFB40F67C20C2F2000034
:1025A000FFF75EFD40F67C200021C2F20000FFF73D
:1025B0002FFD40F67C20C2F20000FFF739FD40F607
:1025C000982040F60001C2F20001C2F20000FFF7BD
:1025D000BFFB40F69820C2F20000FFF741FD40F635
:1025E00098200021C2F20000FFF712FD40F698206B
:1025F000C2F20000FFF71CFD202383F3118840F690
:10260000F002C2F20002137A012B13D14FF4805171
:10261000C4F20201C8694FF46143CEF2000340F4F2
:10262000003EC0254020C1F81CE083F82653C3F8C3
:1026300084015860536F40F2712199604025012058
:1026400042F22C1E00211D615861FF25C3F80CE0E9
:1026500002201960D3F800E05B6882F878501072AD
:1026600081F31188202383F3118840F6C02343F2BD
:102670007431C2F20003D4F814E0C0F6000141F650
:10268000F16003F5807200254FF0810CC3F8FC6007
:10269000C3F8181103F1DC0A03F5967103F594767B
:1026A000C0F600004FF002094FF00108C3F8DC004B
:1026B000C3F81041C3F81C31C3F80CA183F8209172
:1026C00083F82281C3F814E1C3F8E05083F8215164
:1026D000C3F83851C3F83451C3F808C1C3F83CC13A
:1026E0001046CEF81020C3F82861C3F82C11C3F8A7
:1026F00030116261FFF71CFC85F3118840F6082356
:10270000C2F200030993099B40F6084B1A6840F691
:102710006803C2F2000BC2F2000340F67006CDF867
:102720001CB0039340F6E84B41F2597340F60C4558
:10273000C2F200064FF40064C2F2000BCDF2B713F0
:10274000C2F20005CDF814B0C4F201040893B046FB
:10275000002A00F0EE81DDF82090C346059E079B1D
:1027600031681A68914200F06A82A268D00702D4E8
:10277000A26891073ED540F67C20C2F200000021FD
:10278000FFF746FC40F6982000214FF40066C2F2A5
:1027900000004FF40078FFF73BFC4FF47A70C4F868
:1027A00010802661FFF794FBBA6841F2707A0AFB49
:1027B00002F2A9FB020140F67C20490BC2F20000A4
:1027C000FFF726FC069B40F698209A68C2F20000AC
:1027D0000AFB02F2A9FB0231490BFFF719FCC4F80E
:1027E000108040F2DC502661FFF772FB059E3268D4
:1027F00001323260A268D20702D5A2689307ADD435
:1028000040F67C20C2F200000021FFF701FC40F6F8
:1028100098204FF400784FF400660021C2F20000C7
:10282000FFF7F6FB4FF47A70C4F810802661FFF7CB
:102830004FFBBA684FF47A7A0AFB02F2A9FB020155
:1028400040F67C20490BC2F20000FFF7E1FB40F6A6
:1028500098200021C2F20000FFF7DAFBC4F81080D4
:1028600040F226202661FFF733FB40F67C20C2F2BF
:1028700000000021FFF7CCFB40F698200021C2F2B7
:102880000000FFF7C5FB5046C4F810802661FFF733
:102890001FFBBA6841F2707A0AFB02F2A9FB02310F
:1028A00040F67C20490BC2F20000FFF7B1FB069B0B
:1028B00040F698209A68C2F200000AFB02F2A9FBD7
:1028C0000231490BFFF7A4FBC4F8108040F2DC5042
:1028D0002661FFF7FDFA2A6801322A603EE740F6DA
:1028E0007C20C2F200000021FFF792FB40F6982006
:1028F0004FF4006B0021C2F20000D0464FF4007A82
:10290000FFF786FBC4F810A041F28830C4F810B07D
:10291000FFF7DEFABA684FF47A7000FB02F2089B08
:1029200040F67C20A3FB0231C2F20000490BFFF706
:102930006FFB40F698200021C2F20000FFF768FB11
:10294000C4F810A040F22620C4F810B0FFF7C0FA77
:1029500040F67C20C2F200000021FFF759FB40F650
:1029600098200021C2F20000FFF752FBC4F810A02B
:102970004FF47A70C4F810B0FFF7AAFABA6841F2BF
:10298000707000FB02F2089B40F67C20A3FB023132
:10299000C2F20000490BFFF73BFB069B41F270714E
:1029A0009A68089B01FB02F2A3FB023140F69820D3
:1029B000490BC2F20000FFF72BFBC4F810A0C4F8CB
:1029C00010B030684EF26039C0F2160909FB00F011
:1029D00044F6D356C1F2620600F2E730A6FB0010BF
:1029E000C0F38F10FFF774FA40F67C20C2F20000AB
:1029F0000021FFF70DFB069B4FF47A719A68089B44
:102A000001FB02F2A3FB023140F69820490BC2F20F
:102A10000000FFF7FDFAC4F810A040F22620C4F829
:102A200010B0FFF755FABA6841F2707101FB02F27B
:102A3000089B40F67C20A3FB0231C2F20000490B48
:102A4000FFF7E6FA069B41F270719A68089B01FB5A
:102A500002F2A3FB023140F69820490BC2F20000BB
:102A6000FFF7D6FA079BC4F810A0C4F810B01A6894
:102A700009FB02F202F2E730A6FB0010C0F38F1050
:102A8000FFF726FA40F67C20C2F200000021FFF793
:102A9000BFFA069B4FF47A769A68089B06FB02F20F
:102AA000A3FB023140F69820490BC2F20000FFF769
:102AB000AFFAC4F810A040F22620C4F810B0FFF717
:102AC00007FA40F67C20C2F200000021FFF7A0FACE
:102AD000069E4FF47A71B268089B01FB02F2A3FBD9
:102AE000023140F69820490BC2F20000FFF790FA3D
:102AF000C4F810A040F22620C4F810B0FFF7E8F99F
:102B000040F67C20C2F200000021FFF781FA40F677
:102B10009820C2F200000021FFF77AFAC4F810A052
:102B200041F28830C4F810B0FFF7D2F9099E0022B4
:102B3000326004222261A2684FF48021920642BFD3
:102B4000099E01223260A268530642BFDDF824B01C
:102B50000222CBF80020A268160642BF099B03227E
:102B60001A60082221612261A268900642BF099E74
:102B700004223260A268510642BFDDF824B005226B
:102B8000CBF80020A2684FF40021120642BF099B37
:102B900006221A60102221612261A268930642BFB8
:102BA000099E07223260A268560600F13A83DDF8DA
:102BB00024B04FF48010DBF800202061511E07295B
:102BC0003FF6C6ADDFE811F035002C0025001E00F1
:102BD00016000F0008003303079E02200621306014
:102BE000C8F80010B4E5079B062004211860C8F857
:102BF0000010ADE5DDF81CB00421CBF80010C8F8DA
:102C00000010A5E5079E022004213060C8F80010DE
:102C10009EE5079B062002211860C8F8001097E582
:102C2000DDF81CB004200221CBF80000C8F8001029
:102C30008EE5079E02213160C8F8001088E5DA466B
:102C40002968DAF8002040F670069142C2F20006C8
:102C50003FF445AE40F67C20C2F200000021FFF7B1
:102C6000D7F940F6982000214FF400784FF4006621
:102C7000C2F20000FFF7CCF94FF47A70C4F810806C
:102C80002661FFF725F9BA684FF47A7B0BFB02F255
:102C9000A9FB020140F67C20490BC2F20000FFF7BD
:102CA000B7F940F698200021C2F20000FFF7B0F912
:102CB000C4F8108040F226202661FFF709F940F69B
:102CC0007C20C2F200000021FFF7A2F940F6982014
:102CD000C2F200000021FFF79BF9C4F810805846AB
:102CE0002661FFF7F5F8039A12780492049A002AF5
:102CF00000F0D1802A68DAF800309A4270D0A168DA
:102D0000C80702D4A168890759D50132934200F05F
:102D1000C0812A68DAF8003001329A423FD0BB689D
:102D200041F2707606FB03F3A9FB03B140F67C2069
:102D3000490BC2F20000FFF76BF9DDF818B040F65E
:102D40009820DBF80830C2F2000006FB03F3A9FB71
:102D500003214FF40078490B4FF40066FFF758F950
:102D6000C4F8108040F2DC502661FFF7B1F82B6800
:102D700040F67C200133C2F2000000212B60FFF7F7
:102D800047F940F69820C2F200000021FFF740F911
:102D9000C4F810804FF47A702661FFF799F8059B0C
:102DA000079E1A68336840F6E8469A42C2F2000667
:102DB00005DD2A68DAF800309A4200F0B881A3688D
:102DC000DB0771D5A3689E076ED5039E36780496FF
:102DD000049A002A5FD02A68DAF800309A428ED12D
:102DE00040F67C20C2F200000021FFF711F940F606
:102DF00098204FF4006600214FF40078C2F20000E2
:102E0000FFF706F94FF47A70C4F810802661FFF7D7
:102E10005FF8BB684FF47A7B0BFB03F3A9FB03015C
:102E200040F67C20490BC2F20000FFF7F1F840F6B3
:102E300098200021C2F20000FFF7EAF8C4F81080E1
:102E400040F226202661FFF743F840F67C20C2F2CC
:102E500000000021FFF7DCF840F698200021C2F2C4
:102E60000000FFF7D5F8C4F8108058462661FFF738
:102E70002FF840F6700640F60C41C2F20001C2F293
:102E800000060A683368DDF80CB000219A428BF81E
:102E900000107FF434AF059B079E19683268914299
:102EA0003FF4CEAED34660E440F67C20C2F2000090
:102EB0000021FFF7ADF840F698204FF400664FF47C
:102EC00000780021C2F20000FFF7A2F8C4F81080D9
:102ED0004FF47A702661FEF7FBFF40F67C20C2F2C9
:102EE00000000021FFF794F8DDF818B0DBF8083097
:102EF0004FF47A7B0BFB03F3A9FB030140F6982008
:102F0000490BC2F20000FFF783F8C4F8108040F2CA
:102F100026202661FEF7DCFF40F67C20C2F200008E
:102F20000021FFF775F840F698200021C2F200005A
:102F3000FFF76EF85846C4F810802661FEF7C8FF08
:102F4000BA6841F2707303FB02F2A9FB020140F67A
:102F50007C20490BC2F200000193FFF759F8069953
:102F6000019B8A6840F6982003FB02F3A9FB03212A
:102F7000C2F20000490BFFF74BF8C4F8108040F292
:102F8000DC502661FEF7A4FF059A40F67C2013680A
:102F9000C2F20000013300211360FFF739F840F658
:102FA00098200021C2F20000FFF732F8C4F8108028
:102FB00058462661FEF78CFFBB6840F67C200BFB71
:102FC00003F3A9FB0321C2F20000490BFFF720F82D
:102FD00040F698200021C2F20000FFF719F8C4F86B
:102FE000108040F226202661FEF772FF40F67C201A
:102FF000C2F200000021FFF70BF840F698200021F4
:10300000C2F20000FFF704F85846C4F810802661A9
:10301000FEF75EFFBA6841F2883303FB02F2A9FBB8
:10302000020140F67C20490BC2F200000193FEF73A
:10303000EFFF0699019B8A6840F6982003FB02F394
:10304000A9FB0321C2F20000490BFEF7E1FFC4F81F
:10305000108040F2DC502661FEF73AFF2B6840F604
:103060007C200133C2F2000000212B60FEF7D0FF6C
:1030700040F69820C2F200000021FEF7C9FFC4F814
:10308000108058462661FEF723FF039E012333700C
:103090002CE6BB6841F2707606FB03F3A9FB030143
:1030A00040F67C20490BC2F20000FEF7B1FFDDF8CC
:1030B00018B040F69820DBF80830C2F2000006FB9A
:1030C00003F3A9FB03214FF40066490B4FF400788A
:1030D000FEF79EFFC4F810804FF47A702661FEF769
:1030E000F7FE2B6840F67C200133C2F2000000217D
:1030F0002B60FEF78DFF40F698200021C2F2000001
:10310000FEF786FFC4F810804FF47A702661FEF750
:10311000DFFE2A68DAF80030511C039E0020994235
:1031200030703FF43CAE9A427FF4F9AD37E640F69A
:103130007C20C2F200000021FEF76AFF40F69820D2
:103140004FF4007B4FF400680021C2F20000FEF74C
:103150005FFF4FF47A70C4F810B0C4F81080FEF727
:10316000B7FEBA684FF47A7303FB02F2A9FB0201BF
:1031700040F67C20490BC2F200000193FEF748FFA5
:1031800040F698200021C2F20000FEF741FFC4F88B
:1031900010B040F22620C4F81080FEF799FE40F6E9
:1031A0007C20C2F200000021FEF732FF40F698209A
:1031B0000021C2F20000FEF72BFF019BC4F810B003
:1031C0001846C4F81080FEF783FEB96841F27072A9
:1031D00002FB01F1A9FB010140F67C20490BC2F280
:1031E00000000292FEF714FF0698029A816840F6EA
:1031F000982002FB01F1A9FB0121C2F20000490B5A
:10320000FEF706FF019BC4F810B01846C4F8108002
:10321000FEF75EFE33680022013B3360039B1A70A9
:10322000CDE5099B08214FF4801219602261DDF879
:103230001CB004210622CBF80010C8F80020C346B9
:10324000DDF82090FFF78ABAAFF30080AFF300807B
:10325000E8330008EC0C0020EC0C0020EC0C002003
:10326000E83300080000000000000000000000003B
:10327000E83300080000000000000000000000002B
:10328000E83300080000000000000000000000001B
:10329000E83300080000000000000000000000000B
:1032A000E8330008000000000000000000000000FB
:1032B000E8330008000000000000000000000000EB
:1032C000E8330008000000000000000000000000DB
:1032D000040204080800030708080808080808088A
:1032E0000B0F0000636F6D756E69636163696F6ECC
:1032F0002053544D3332200D0A000000286E756CA7
:103300006C29000073656E64327561727400000090
:103310000A00000064000000E8030000102700001D
:10332000A086010040420F008096980000E1F5055C
:1033300000CA9A3B31170008E11500086116000821
:103340000115000851160008F114000821170008A3
:10335000D11500086D61696E001602200402440850
:103360000C1014181C2021220000000069646C65F8
:0C337000000000006E6F6E616D650000D3
:10337C0010270000F4010000F10C0008010000000F
:10338C00E10C00080000000000000000000000003C
:10339C000000000000000000000000000000000021
:1033AC000000000010270000F4010000D10C000800
:1033BC0001000000C10C000800000000000000002B
:1033CC0000000000000000000000000000000000F1
:0C33DC00000000000000000001000000E4
:04000005080001816D
:00000001FF
